:020000040800F2
:10000000005000209D250008ED250008ED25000882
:10001000ED250008ED250008ED2500080000000092
:10002000000000000000000000000000ED250008B6
:10003000ED25000800000000ED2500082120000843
:10004000ED250008ED250008ED250008ED25000848
:10005000ED250008ED2500083D1700086117000890
:1000600085170008A9170008CD170008ED2500081E
:10007000ED250008ED250008ED250008ED25000818
:10008000ED250008ED250008ED250008ED25000808
:10009000ED250008ED250008ED250008F117000802
:1000A000ED250008ED250008ED250008ED250008E8
:1000B000ED250008ED250008ED250008ED250008D8
:1000C000ED250008ED250008ED250008ED250008C8
:1000D000ED250008ED250008ED250008ED250008B8
:1000E000ED250008ED25000800000000ED250008C2
:1000F000ED250008ED250008ED250008ED25000898
:10010000ED250008ED250008ED250008ED25000887
:10011000ED250008ED250008ED250008ED25000877
:10012000ED250008ED250008ED250008ED25000867
:1001300010B5054C237833B9044B13B10448AFF321
:1001400000800123237010BD70000020000000001B
:10015000382F000808B5034B1BB103490348AFF320
:10016000008008BD0000000074000020382F000847
:1001700081F0004102E000BF83F0004330B54FEA58
:1001800041044FEA430594EA050F08BF90EA020FC5
:100190001FBF54EA000C55EA020C7FEA645C7FEA58
:1001A000655C00F0E2804FEA5454D4EB5555B8BF7B
:1001B0006D420CDD2C4480EA020281EA030382EAEC
:1001C000000083EA010180EA020281EA0303362D7E
:1001D00088BF30BD11F0004F4FEA01314FF4801C51
:1001E0004CEA113102D0404261EB410113F0004F63
:1001F0004FEA03334CEA133302D0524263EB43031A
:1002000094EA050F00F0A780A4F10104D5F1200EB7
:100210000DDB02FA0EFC22FA05F2801841F1000112
:1002200003FA0EF2801843FA05F359410EE0A5F1E6
:1002300020050EF1200E012A03FA0EFC28BF4CF017
:10024000020C43FA05F3C01851EBE37101F00045CD
:1002500007D54FF0000EDCF1000C7EEB00006EEBDA
:100260000101B1F5801F1BD3B1F5001F0CD3490864
:100270005FEA30004FEA3C0C04F101044FEA4452BB
:1002800012F5800F80F09A80BCF1004F08BF5FEA42
:10029000500C50F1000041EB045141EA050130BD22
:1002A0005FEA4C0C404141EB0101013C28BFB1F534
:1002B000801FE9D291F0000F04BF01460020B1FA7F
:1002C00081F308BF2033A3F10B03B3F120020CDA52
:1002D0000C3208DD02F1140CC2F10C0201FA0CF030
:1002E00021FA02F10CE002F11402D8BFC2F1200C95
:1002F00001FA02F120FA0CFCDCBF41EA0C0190404B
:10030000E41AA2BF01EB0451294330BD6FEA040493
:100310001F3C1CDA0C340EDC04F11404C4F120027E
:1003200020FA04F001FA02F340EA030021FA04F390
:1003300045EA030130BDC4F10C04C4F1200220FAE7
:1003400002F001FA04F340EA0300294630BD21FA25
:1003500004F0294630BD94F0000F83F4801306BFEB
:1003600081F480110134013D4EE77FEA645C18BFDF
:100370007FEA655C29D094EA050F08BF90EA020F76
:1003800005D054EA000C04BF1946104630BD91EA6E
:10039000030F1EBF0021002030BD5FEA545C05D171
:1003A0004000494128BF41F0004130BD14F58004B0
:1003B0003CBF01F5801130BD01F0004545F0FE4124
:1003C00041F470014FF0000030BD7FEA645C1ABF59
:1003D000194610467FEA655C1CBF0B46024650EA90
:1003E000013406BF52EA033591EA030F41F40021BC
:1003F00030BD00BF90F0000F04BF0021704730B542
:100400004FF4806404F132044FF000054FF0000116
:1004100050E700BF90F0000F04BF0021704730B5D7
:100420004FF4806404F1320410F0004548BF4042AC
:100430004FF000013EE700BF42004FEAE2014FEA01
:1004400031014FEA02701FBF12F07F4393F07F4FDC
:1004500081F06051704732F07F4208BF704793F0DF
:100460007F4F04BF41F40021704730B54FF46074F2
:1004700001F0004521F000411CE700BF50EA0102F5
:1004800008BF704730B54FF000050AE050EA01029E
:1004900008BF704730B511F0004502D5404261EB0E
:1004A00041014FF4806404F132045FEA915C3FF44F
:1004B000D8AE4FF003025FEADC0C18BF03325FEAEC
:1004C000DC0C18BF033202EBDC02C2F1200300FA9D
:1004D00003FC20FA02F001FA03FE40EA0E0021FAC2
:1004E00002F11444BDE600BF70B54FF0FF0C4CF4B0
:1004F000E06C1CEA11541DBF1CEA135594EA0C0F62
:1005000095EA0C0F00F0DEF82C4481EA030621EA9C
:100510004C5123EA4C5350EA013518BF52EA0335D7
:1005200041F4801143F4801338D0A0FB02CE4FF089
:100530000005E1FB02E506F00042E0FB03E54FF0B9
:100540000006E1FB03569CF0000F18BF4EF0010EB1
:10055000A4F1FF04B6F5007F64F5407404D25FEAAD
:100560004E0E6D4146EB060642EAC62141EA555160
:100570004FEAC52040EA5E504FEACE2EB4F1FD0CA2
:1005800088BFBCF5E06F1ED8BEF1004F08BF5FEA20
:10059000500E50F1000041EB045170BD06F00046D2
:1005A00046EA010140EA020081EA0301B4EB5C047F
:1005B000C2BFD4EB0C0541EA045170BD41F4801177
:1005C0004FF0000E013C00F3AB8014F1360FDEBF9C
:1005D000002001F0004170BDC4F10004203C35DA78
:1005E0000C341BDC04F11404C4F1200500FA05F3FB
:1005F00020FA04F001FA05F240EA020001F000429C
:1006000021F0004110EBD37021FA04F642EB060111
:100610005EEA430E08BF20EAD37070BDC4F10C043B
:10062000C4F1200500FA04F320FA05F001FA04F2FF
:1006300040EA020001F0004110EBD37041F10001EB
:100640005EEA430E08BF20EAD37070BDC4F12005F6
:1006500000FA05F24EEA020E20FA04F301FA05F25E
:1006600043EA020321FA04F001F0004121FA04F206
:1006700020EA020000EBD3705EEA430E08BF20EAD6
:10068000D37070BD94F0000F0FD101F00046400010
:1006900041EB010111F4801F08BF013CF7D041EA92
:1006A000060195F0000F18BF704703F00046520096
:1006B00043EB030313F4801F08BF013DF7D043EA67
:1006C0000603704794EA0C0F0CEA135518BF95EA1D
:1006D0000C0F0CD050EA410618BF52EA4306D1D1A4
:1006E00081EA030101F000414FF0000070BD50EAC3
:1006F000410606BF1046194652EA430619D094EA4D
:100700000C0F02D150EA013613D195EA0C0F05D136
:1007100052EA03361CBF104619460AD181EA03018A
:1007200001F0004141F0FE4141F470014FF0000042
:1007300070BD41F0FE4141F4780170BD70B54FF0DD
:10074000FF0C4CF4E06C1CEA11541DBF1CEA13555D
:1007500094EA0C0F95EA0C0F00F0A7F8A4EB05043F
:1007600081EA030E52EA03354FEA013100F0888036
:100770004FEA03334FF0805545EA131343EA1263FF
:100780004FEA022245EA111545EA10654FEA0026B4
:100790000EF000419D4208BF964244F1FD0404F56D
:1007A000407402D25B084FEA3202B61A65EB0305C9
:1007B0005B084FEA32024FF480104FF4002CB6EB86
:1007C000020E75EB030E22BFB61A754640EA0C0006
:1007D0005B084FEA3202B6EB020E75EB030E22BF46
:1007E000B61A754640EA5C005B084FEA3202B6EB87
:1007F000020E75EB030E22BFB61A754640EA9C0046
:100800005B084FEA3202B6EB020E75EB030E22BF15
:10081000B61A754640EADC0055EA060E18D04FEAD3
:10082000051545EA16754FEA06164FEAC30343EA73
:1008300052734FEAC2025FEA1C1CC0D111F4801F40
:100840000BD141EA00014FF000004FF0004CB6E739
:1008500011F4801F04BF01430020B4F1FD0C88BFD8
:10086000BCF5E06F3FF6AFAEB5EB030C04BFB6EBE3
:10087000020C5FEA500C50F1000041EB045170BDD6
:100880000EF0004E4EEA113114EB5C04C2BFD4EB03
:100890000C0541EA045170BD41F480114FF0000E87
:1008A000013C90E645EA060E8DE60CEA135594EA03
:1008B0000C0F08BF95EA0C0F3FF43BAF94EA0C0F06
:1008C0000AD150EA01347FF434AF95EA0C0F7FF47B
:1008D00025AF104619462CE795EA0C0F06D152EACF
:1008E00003353FF4FDAE1046194622E750EA4106B3
:1008F00018BF52EA43067FF4C5AE50EA41047FF4C4
:100900000DAF52EA43057FF4EBAE12E74FF0FF3C28
:1009100006E000BF4FF0010C02E000BF4FF0010CF9
:100920004DF804CD4FEA410C7FEA6C5C4FEA430C72
:1009300018BF7FEA6C5C1BD001B050EA410C0CBFC1
:1009400052EA430C91EA030F02BF90EA020F002023
:10095000704710F1000F91EA030F58BF994208BF8A
:1009600090422CBFD8176FEAE37040F00100704747
:100970004FEA410C7FEA6C5C02D150EA013C07D19E
:100980004FEA430C7FEA6C5CD6D152EA033CD3D0E9
:100990005DF8040B704700BF8446104662468C46E3
:1009A0001946634600E000BF01B5FFF7B7FF002816
:1009B00048BF10F1000F01BD4DF808EDFFF7F4FF3F
:1009C0000CBF012000205DF808FB00BF4DF808EDCA
:1009D000FFF7EAFF34BF012000205DF808FB00BFED
:1009E0004DF808EDFFF7E0FF94BF012000205DF80F
:1009F00008FB00BF4DF808EDFFF7CEFF94BF0120C4
:100A000000205DF808FB00BF4DF808EDFFF7C4FFBC
:100A100034BF012000205DF808FB00BF80B500AFA7
:100A200001F0A8FA0021022001F064FA00BF80BDA5
:100A300080B483B000AF03460A46FB711346BB7116
:100A4000BB79032B17D83B4B9B68BA7992000F21D7
:100A500001FA02F2D2431146364A0B409360354BFD
:100A60009B68F979BA79920001FA02F21146314A8B
:100A70000B43936058E0BB79072B1AD8BB79043B32
:100A8000BB712C4BDB68BA7992000F2101FA02F29C
:100A9000D2431146274A0B40D360264BDB68F979D5
:100AA000BA79920001FA02F21146224A0B43D3604E
:100AB0003AE0BB790B2B1AD8BB79083BBB711D4BB5
:100AC000DB68BA7992000F2101FA02F2D243114693
:100AD000184A0B40D360174BDB68F979BA7992005A
:100AE00001FA02F21146134A0B43D3601CE0BB79B2
:100AF0000F2B19D8BB790C3BBB710E4BDB68BA7955
:100B000092000F2101FA02F2D2431146094A0B402A
:100B1000D360084BDB68F979BA79920001FA02F2E6
:100B20001146044A0B43D36000BF0C37BD4680BC5E
:100B3000704700BF0000014080B582B000AF03469F
:100B4000FB7101F017FA0121012001F0D3F9032113
:100B5000012000F0B1FEFB79002B02D0012B13D055
:100B600025E0012000F0CCFA01220721012000F04D
:100B7000D9FA01220C21012000F0D4FA0922062121
:100B8000002000F0CFFA12E0002000F0B9FA0122B4
:100B90000521002000F0C6FA01220421002000F007
:100BA000C1FA09220721002000F0BCFA00BF00BFF3
:100BB0000837BD4680BD80B582B000AF03460A4607
:100BC000FB711346BB71FB79002B02D0012B1DD0AA
:100BD00039E0BB79022B02D0032B0BD033E001228A
:100BE0000721012000F0D0FB00220C21012000F0A1
:100BF000CBFB0AE000220721012000F0C5FB012207
:100C00000C21012000F0C0FB00BF1CE0BB79022BCF
:100C100002D0032B0BD015E001220521002000F0AB
:100C2000B3FB00220421002000F0AEFB0AE000220A
:100C30000521002000F0A8FB01220421002000F083
:100C4000A3FB00BF00BF00BF0837BD4680BD80B515
:100C500082B000AF0346FB71FB79002B02D0012B61
:100C60000BD015E000220721012000F08DFB0022AF
:100C70000C21012000F088FB0AE000220521002061
:100C800000F082FB00220421002000F07DFB00BF69
:100C900000BF0837BD4680BD80B582B000AF0346B7
:100CA0000A46FB711346BB71FB79002B02D0012B66
:100CB00007D00DE0BB7900220121184600F0B8FEF4
:100CC00006E0BB7901220121184600F0B1FE00BF09
:100CD00000BF0837BD4680BD80B500AF1921012097
:100CE00001F008F90221022001F004F9002000F0CF
:100CF00007FA04220B21002000F014FA0A220C212A
:100D0000002000F00FFA274B1B68264A23F002034D
:100D1000136000BF234B5B685B0803F00103002BEB
:100D2000F8D1204B1B681F4A43F00103136000BF3A
:100D30001C4B5B6803F00103012BF9D1194B1B68B5
:100D4000184A23F004031360164B1B68154A23F05E
:100D500008031360134B1B68124A23F0100313603F
:100D6000104B1B680F4A43F0200313600D4B1B68A8
:100D70000C4A43F0400313600A4B1B68094A23F0F6
:100D8000800313600223013B1B051A460D23013B20
:100D90001B0413430122013A1146024A0B43D3615B
:100DA00000BF80BD0064004080B400AF084B1B68EA
:100DB000074A23F00103136000BF054B5B6803F093
:100DC0000103002BF9D100BF00BFBD4680BC7047B6
:100DD0000064004080B487B000AFF860B9607A600A
:100DE000504AFB681B331B0113441B689B0803F02C
:100DF0000102BB689A60BB689B68002B09D1494A15
:100E0000FB681B331B0113441B685A0DBB681A6037
:100E100008E0444AFB681B331B0113441B68DA08D3
:100E2000BB685A603F4AFB681B331B0113441B68B5
:100E30005B0803F00102BB68DA603A4AFB681B33C7
:100E40001B01134404331B6803F00F02BB681A61D3
:100E5000344AFB681B331B01134404331B681B0A11
:100E6000DAB2BB689A612F4AFB681B331B0113443B
:100E700004331B681B0C9AB2BB685A610023FB75D4
:100E800007E0FB7D7A68134400221A70FB7D013372
:100E9000FB75FB7D072BF4D90023BB7527E0BB7DD9
:100EA000032B10D81F4AFB681B01134403F5DC73A6
:100EB0001A68BB7DDB0022FA03F1BB7D7A6813441C
:100EC000CAB21A7010E0174AFB681B01134403F5FD
:100ED000DE731A68BB7D043BDB0022FA03F1BB7DA5
:100EE0007A681344CAB21A70BB7D0133BB75BA7DF0
:100EF000BB681B699A42D2D3FB68002B06D1094B11
:100F0000DB68084A43F02003D36005E0054B1B690A
:100F1000044A43F02003136100BF1C37BD4680BC68
:100F2000704700BF0064004080B483B000AF034648
:100F3000FB71FB79002B06D1084BDB68DBB203F0B9
:100F40000303DBB205E0054B1B69DBB203F00303CF
:100F5000DBB218460C37BD4680BC704700640040C9
:100F600080B485B000AF7860644BD3F80032634A38
:100F700043F00103C2F800327B685B69FB605F4BA2
:100F8000D3F81C327A685269012101FA02F2D24385
:100F900011465A4A0B40C2F81C327B68DB69002BB1
:100FA00028D1564BD3F80C320121FA6801FA02F22B
:100FB000D2431146514A0B40C2F80C327B68DB68C1
:100FC00019047B685B689AB24C487B685B690A438A
:100FD000483340F833207B689B6819047B681B68A2
:100FE0009AB246487B685B690A434833DB00034496
:100FF0005A602AE07B68DB69012B26D13F4BD3F88E
:101000000C320121FA6801FA02F211463B4A0B4305
:10101000C2F80C327B681B6819047B685B689AB263
:1010200036487B685B690A43483340F833207B6865
:101030009B6819047B68DB689AB230487B685B69FF
:101040000A434833DB0003445A607B689B69002BEA
:101050000DD12A4BD3F804320121FA6801FA02F2C9
:10106000D2431146254A0B40C2F804320BE0234B11
:10107000D3F804320121FA6801FA02F211461F4A3C
:101080000B43C2F804327B681B69002B0DD11B4B4C
:10109000D3F814320121FA6801FA02F2D243114660
:1010A000164A0B40C2F814320BE0144BD3F814323A
:1010B0000121FA6801FA02F21146104A0B43C2F804
:1010C00014327B681B6A012B0BD10C4BD3F81C32FA
:1010D0000121FA6801FA02F21146084A0B43C2F8EC
:1010E0001C32064BD3F80032044A23F00103C2F845
:1010F000003200BF1437BD4680BC7047006400401A
:1011000080B582B000AF0346FB7100F033FFFB797E
:1011100002331946022000F0EDFE00BF0837BD463D
:1011200080BD000080B483B000AF0346FB710B4666
:10113000BB7113467B71FB79022B00F0B380022B4D
:1011400000F30A81002B02D0012B56D004E1BB79B9
:10115000072B17D8834B1B68BA7992000F2101FA2D
:1011600002F2D24311467F4A0B4013607D4B1B684D
:101170007979BA79920001FA02F21146794A0B4361
:1011800013601CE0BB790F2B19D8BB79083BBB71EE
:10119000754B1B68BA7992000F2101FA02F2D24313
:1011A0001146714A0B4013606F4B1B687979BA790D
:1011B000920001FA02F211466B4A0B4313607B79ED
:1011C000082B0BD1694B1B68BA79012101FA02F295
:1011D000D2431146654A0B401360B8E07B79082B77
:1011E00040F0B580614B1B68BA79012101FA02F227
:1011F00011465E4A0B431360A9E0BB79072B17D851
:101200005B4B1B68BA7992000F2101FA02F2D243BC
:101210001146574A0B401360554B1B687979BA79D0
:10122000920001FA02F21146514A0B4313601CE08E
:10123000BB790F2B19D8BB79083BBB714D4B1B6891
:10124000BA7992000F2101FA02F2D2431146494ABB
:101250000B401360474B1B687979BA79920001FA09
:1012600002F21146434A0B4313607B79082B0BD1E2
:10127000414B1B68BA79012101FA02F2D2431146AF
:101280003D4A0B40136064E07B79082B61D13A4BF7
:101290001B68BA79012101FA02F21146364A0B4362
:1012A000136056E0BB79072B17D8344B1B68BA790B
:1012B00092000F2101FA02F2D24311462F4A0B404D
:1012C00013602E4B1B687979BA79920001FA02F209
:1012D00011462A4A0B4313601CE0BB790F2B19D827
:1012E000BB79083BBB71264B1B68BA7992000F2172
:1012F00001FA02F2D2431146214A0B401360204BFF
:101300001B687979BA79920001FA02F211461C4AF7
:101310000B4313607B79082B0BD11A4B1B68BA79EE
:10132000012101FA02F2D2431146164A0B40136022
:1013300011E07B79082B0ED1124B1B68BA79012181
:1013400001FA02F211460F4A0B43136003E000BF9B
:1013500002E000BF00E000BF00BF0C37BD4680BC0C
:10136000704700BF00080140040801400C0801401C
:10137000000C0140040C01400C0C01400010014025
:10138000041001400C10014080B483B000AF03464C
:10139000FB710B46BB7113467B71FB79022B40D06E
:1013A000022B60DC002B02D0012B1DD05BE07B798F
:1013B000012B0AD12E4B1B68BA79012101FA02F2E6
:1013C00011462B4A0B43136048E07B79002B45D133
:1013D000274B1B68BA79012101FA02F2D243114668
:1013E000234A0B40136039E07B79012B0AD1214B52
:1013F0001B68BA79012101FA02F211461D4A0B431A
:1014000013602DE07B79002B2AD11A4B1B68BA7927
:10141000012101FA02F2D2431146164A0B40136031
:101420001EE07B79012B0AD1134B1B68BA7901218D
:1014300001FA02F21146104A0B43136012E07B7965
:10144000002B0FD10C4B1B68BA79012101FA02F273
:10145000D2431146084A0B40136003E000BF02E08C
:1014600000BF00E000BF00BF0C37BD4680BC704726
:101470000C0801400C0C01400C10014080B582B0FA
:1014800000AF03460A46FB711346BB71FFF7C6FA6D
:10149000FB79132B6AD8FB7919460020FFF7C8FAAD
:1014A000FB79002B03D1062000F0FEFC28E0FB793D
:1014B000012B03D1072000F0F7FC21E0FB79022B80
:1014C00003D1082000F0F0FC1AE0FB79032B03D1D4
:1014D000092000F0E9FC13E0FB79042B03D10A207A
:1014E00000F0E2FC0CE0FB79092B03D8172000F098
:1014F000DBFC05E0FB790F2B02D8282000F0D4FCA0
:10150000BB79022B1DD0022B00F3B080002B02D040
:10151000012B0BD0AAE0574B9B68FA79012101FA05
:1015200002F21146534A0B4393609FE0514BDB6834
:10153000FA79012101FA02F211464E4A0B43D360B7
:1015400094E04C4B9B68FA79012101FA02F21146B2
:10155000484A0B439360474BDB68FA79012101FA53
:1015600002F21146434A0B43D3607FE0FB79272BFD
:101570003CD8FB79143BFB71FB7919460120FFF73E
:1015800057FABB79022B1CD0022B6FDC002B02D048
:10159000012B0BD06AE0374B9B68FA79012101FAE5
:1015A00002F21146334A0B4393605FE0314BDB6834
:1015B000FA79012101FA02F211462E4A0B43D36057
:1015C00054E02C4B9B68FA79012101FA02F2114692
:1015D000284A0B439360274BDB68FA79012101FA13
:1015E00002F21146234A0B43D3603FE0FB793B2BC9
:1015F0003CD8FB79283BFB71FB7919460220FFF7A9
:1016000017FABB79022B1CD0022B2FDC002B02D047
:10161000012B0BD02AE0174B9B68FA79012101FAC4
:1016200002F21146134A0B4393601FE0114BDB6833
:10163000FA79012101FA02F211460E4A0B43D360F6
:1016400014E00C4B9B68FA79012101FA02F2114671
:10165000084A0B439360074BDB68FA79012101FAD2
:1016600002F21146034A0B43D36000BF00BF0837A4
:10167000BD4680BD0004014080B483B000AF034686
:101680003960FB71FB79092B3ED801A252F823F097
:10169000B9160008C1160008C9160008D1160008BE
:1016A000D9160008E1160008E9160008F11600082E
:1016B000F916000801170008164A3B68136023E07A
:1016C000154A3B6813601FE0144A3B6813601BE037
:1016D000134A3B68136017E0124A3B68136013E03B
:1016E000114A3B6813600FE0104A3B6813600BE03F
:1016F0000F4A3B68136007E00E4A3B68136003E043
:101700000D4A3B68136000BF00BF0C37BD4680BC6C
:10171000704700BF8C000020900000209400002043
:10172000980000209C000020A0000020A4000020C1
:10173000A8000020AC000020B000002080B500AF61
:10174000054B1B689847054B5B69044A43F001034E
:10175000536100BF80BD00BF8C0000200004014029
:1017600080B500AF054B1B689847054B5B69044A81
:1017700043F00203536100BF80BD00BF9000002012
:101780000004014080B500AF054B1B689847054B2E
:101790005B69044A43F00403536100BF80BD00BF8E
:1017A000940000200004014080B500AF054B1B6889
:1017B0009847054B5B69044A43F00803536100BF37
:1017C00080BD00BF980000200004014080B500AF3C
:1017D000054B1B689847054B5B69044A43F01003AF
:1017E000536100BF80BD00BF9C0000200004014089
:1017F00080B500AF2A4B5B695B0903F00103012B45
:1018000009D1284B1B689847254B5B69244A43F054
:101810002003536142E0224B5B699B0903F0010303
:10182000012B09D1204B1B6898471D4B5B691C4A53
:1018300043F04003536131E0194B5B69DB0903F06E
:101840000103012B09D1194B1B689847144B5B69A5
:10185000134A43F08003536120E0114B5B691B0A7C
:1018600003F00103012B09D1114B1B6898470C4B66
:101870005B690B4A43F4807353610FE0084B5B696B
:101880005B0A03F00103012B08D10A4B1B68984740
:10189000034B5B69024A43F40073536100BF80BD90
:1018A00000040140A0000020A4000020A8000020A7
:1018B000AC000020B000002080B483B000AF03462D
:1018C0000A46FB711346BB71FB79022B71D0022BC8
:1018D00000F3A480002B02D0012B3BD09EE0BB790B
:1018E000032B1CD0032B00F39480002B02D0012B80
:1018F0002ED08EE04FF080431B684FF0804223F0E3
:10190000100313604FF080431B684FF0804223F0B8
:10191000020313604FF0804307229A6219E04FF0F0
:1019200080431B684FF0804223F0100313604FF098
:1019300080431B684FF0804243F0800313604FF0F8
:10194000804307229A624FF08043FE22DA6200E071
:1019500000BF5EE0BB79032B16D0032B5BDC002BB2
:1019600002D0012B23D056E02F4B1B682E4A23F0C8
:10197000100313602C4B1B682B4A23F002031360E7
:10198000294B07229A6213E0274B1B68264A23F053
:1019900010031360244B1B68234A43F08003136039
:1019A000214B07229A62204BFE22DA6200E000BF40
:1019B00031E0BB79032B16D0032B2EDC002B02D099
:1019C000012B24D029E0194B1B68184A23F010037F
:1019D0001360164B1B68154A23F002031360134B68
:1019E00007229A6214E0114B1B68104A23F010037F
:1019F00013600E4B1B680D4A43F0800313600B4BC2
:101A000007229A62094B44F61F62DA6200E000BFC7
:101A100003E000BF02E000BF00E000BF00BF0C37E2
:101A2000BD4680BC704700BF000400400008004075
:101A300080B483B000AF78600B46FB701346BB7078
:101A4000FB78022B00F08181022B00F32682002B11
:101A500003D0012B00F0D5801FE2BB78032B00F2EE
:101A6000BF8001A252F823F0791A0008D31A0008A7
:101A70002D1B0008871B00084FF080439B694FF027
:101A8000804223F0100393614FF080439B694FF035
:101A9000804243F0200393614FF080439B694FF0F5
:101AA000804243F0400393614FF080431B6A4FF044
:101AB000804243F0010313624FF080439B694FF073
:101AC000804243F0080393614FF080427B68536388
:101AD00086E04FF080439B694FF0804223F48053AF
:101AE00093614FF080439B694FF0804243F4005371
:101AF00093614FF080439B694FF0804243F48043F1
:101B000093614FF080431B6A4FF0804243F0100313
:101B100013624FF080439B694FF0804243F40063AF
:101B200093614FF080427B68936359E04FF08043AC
:101B3000DB694FF0804223F01003D3614FF0804304
:101B4000DB694FF0804243F02003D3614FF08043C4
:101B5000DB694FF0804243F04003D3614FF0804394
:101B60001B6A4FF0804243F4807313624FF080434E
:101B7000DB694FF0804243F00803D3614FF08042AD
:101B80007B68D3632CE04FF08043DB694FF08042E9
:101B900023F48053D3614FF08043DB694FF08042E0
:101BA00043F40053D3614FF08043DB694FF0804230
:101BB00043F48043D3614FF080431B6A4FF080426F
:101BC00043F4805313624FF08043DB694FF080424F
:101BD00043F40063D3614FF080427B68136400BF1D
:101BE0004FF080435B694FF0804243F00103536143
:101BF0004FF080431B684FF0804243F001031360B5
:101C00004BE1BB78032B00F2938001A252F823F042
:101C1000211C0008651C0008A91C0008ED1C000818
:101C2000844B9B69834A23F010039361814B9B692A
:101C3000804A43F0200393617E4B9B697D4A43F0C9
:101C4000400393617B4B1B6A7A4A43F001031362A2
:101C5000784B9B69774A43F008039361754A7B6828
:101C6000536365E0734B9B69724A23F4805393611D
:101C7000704B9B696F4A43F4005393616D4B9B69B2
:101C80006C4A43F4804393616A4B1B6A694A43F090
:101C900010031362674B9B69664A43F400639361C8
:101CA000644A7B68936343E0624BDB69614A23F0DB
:101CB0001003D3615F4BDB695E4A43F02003D361BD
:101CC0005C4BDB695B4A43F04003D361594B1B6AB1
:101CD000584A43F480731362564BDB69554A43F00C
:101CE0000803D361534A7B68D36321E0514BDB691E
:101CF000504A23F48053D3614E4BDB694D4A43F481
:101D00000053D3614B4BDB694A4A43F48043D361B0
:101D1000484B1B6A474A43F480531362454BDB69C7
:101D2000444A43F40063D361424A7B68136400BFB2
:101D3000404B5B693F4A43F0010353613D4B1B68D5
:101D40003C4A43F001031360A7E0BB78032B00F289
:101D5000978001A252F823F0691D0008AD1D00080C
:101D6000F11D00083D1E0008334B9B69324A23F0E9
:101D700010039361304B9B692F4A43F0200393611A
:101D80002D4B9B692C4A43F0400393612A4B1B6AFD
:101D9000294A43F001031362274B9B69264A43F00B
:101DA00008039361244A7B68536369E0224B9B6973
:101DB000214A23F4805393611F4B9B691E4A43F4CD
:101DC000005393611C4B9B691B4A43F4804393610E
:101DD000194B1B6A184A43F010031362164B9B6998
:101DE000154A43F400639361134A7B68936347E0A9
:101DF000114BDB69104A23F01003D3610E4BDB69F2
:101E00000D4A43F02003D3610B4BDB690A4A43F0D0
:101E10004003D361084B1B6A074A43F48073136283
:101E2000054BDB69044A43F00803D361024A7B682F
:101E3000D36325E00004004000080040194BDB6933
:101E4000184A23F48053D361164BDB69154A43F4D7
:101E50000053D361134BDB69124A43F48043D361CF
:101E6000104B1B6A0F4A43F4805313620D4BDB691E
:101E70000C4A43F40063D3610A4A7B68136400BFD1
:101E8000084B5B69074A43F001035361054B1B682C
:101E9000044A43F00103136000BF00BF0C37BD4686
:101EA00080BC70470008004080B483B000AF034698
:101EB000FB71FB791F2B05D8FB7901229A400B4B54
:101EC0001A600DE0FB791F2B0AD9FB793B2B07D851
:101ED000FB79203BFB71FB7901229A40044B1A608D
:101EE00000BF0C37BD4680BC704700BF00E100E07A
:101EF00004E100E080B483B000AF03463960FB71B9
:101F00003B681F2B2AD8FB79022B1CD0022B25DC27
:101F1000002B02D0012B0BD020E0134B1B680121BA
:101F20003A6801FA02F211460F4A0B43136015E0BA
:101F30000E4B1B6801213A6801FA02F211460B4A66
:101F40000B4313600AE00A4B1B6801213A6801FA4F
:101F500002F21146064A0B43136000BF00BF0C3764
:101F6000BD4680BC704700BF141002401C100240E8
:101F70001810024080B400AF0C4B4FF480321A604E
:101F80000B4B1B680A4A43F001031360084B084AD5
:101F90001B681360064B064A1B681360044B044A17
:101FA0001B68136000BFBD4680BC70470010024034
:101FB0000410024080B500AFFFF7DCFF02210120D2
:101FC000FFF798FF03210220FFF776FC0922062184
:101FD0000120FFF7A7F800BF80BD000080B582B0E8
:101FE00000AF0346FB80FB8840F26C7202FB03F3F8
:101FF0000A4A82FB03121A44D211DB17D31AFB8060
:10200000FB8803F5FA73FB80FB8800220221184647
:10201000FFF70EFD00BF0837BD4680BDB7600BB6A9
:1020200080B582B000AF0A4B1B78002B01D100F0C5
:1020300015F8084B1B689847074B1B681B0CDBB255
:1020400003F00103FB7100BF0837BD4680BD00BF30
:10205000B8000020B400002010E000E080B400AF21
:102060000A4B1B68094A23F002031360074B1B68E5
:10207000064A23F001031360044B00225A60034B0D
:1020800000229A6000BFBD4680BC704710E000E0AF
:1020900080B483B000AF0346FB71FB79022B44D0C0
:1020A000022B61DC002B02D0012B1FD05CE0314BF6
:1020B000DB68304A43F40053D3602E4BDB682D4A73
:1020C00023F48053D3602B4B9B682A4A43F00603CA
:1020D0009360284B9B68274A43F040039360254B4D
:1020E000DB68244A43F00803D3603DE0224BDB6801
:1020F000214A43F40053D3601F4BDB681E4A23F48C
:102100008053D3601C4B9B681B4A43F006039360CB
:10211000194B9B68184A43F040039360164BDB68E9
:10212000154A43F00803D3601EE0144BDB68134AE2
:1021300043F40053D360114BDB68104A23F48053FF
:10214000D3600E4B9B680D4A43F0020393600B4B28
:102150009B680A4A43F450739360084BDB68074A54
:1021600043F00803D36000BF00BF0C37BD4680BCFE
:10217000704700BF00380140004400400048004064
:1021800080B483B000AF03460A46FB711346BB71AF
:10219000FB79022B1ED0022B28DC002B02D0012B56
:1021A0000CD023E000BF144B1B689B0903F0010314
:1021B000002BF8D0104ABB79536017E000BF0F4BDB
:1021C0001B689B0903F00103002BF8D00B4ABB7975
:1021D00053600BE000BF0A4B1B689B0903F001032F
:1021E000002BF8D0064ABB79536000BF00BF0C3704
:1021F000BD4680BC704700BF00380140004400402D
:102200000048004080B584B000AF03463960FB71E0
:102210000023FB730BE0FB7B3A6813441A78FB79CD
:1022200011461846FFF7ACFFFB7B0133FB73FB7BCA
:102230003A6813441B78002BEDD100BF00BF103764
:10224000BD4680BD80B588B000AF03463960FB71E4
:1022500007F10C033A680749184600F0F3F907F153
:102260000C02FB7911461846FFF7CCFF00BF203760
:10227000BD4680BD502F000880B500AFFFF77AFE45
:1022800012210120FFF736FE0220FFF701FF002098
:10229000FEF736FF0120FEF733FF00210020FFF795
:1022A000EDF83D490020FFF7E7F904220021002066
:1022B000FEF738FF0A220A210120FEF733FF04222D
:1022C0000B210120FEF72EFF012200210120FEF745
:1022D00029FF012200210120FFF756F8FEF7FCFC40
:1022E00000F08FF8FEF760FD2C490220FFF78AFF0F
:1022F0000120FEF721FC00F0E3F8FFF75BFE00F0A1
:1023000057F827490220FFF77DFF264B1B78412B0A
:10231000F5D1244B5B781A46234B9B5C9BB2184645
:10232000FFF75CFE1F4B98781E4B99781D4B1A796E
:102330001C4B1B7900F0D4F81C490220FFF762FF08
:10234000184B1B7819460220FFF71AFF2D21022097
:10235000FFF716FF134B5B781A46134B9B5C19462D
:102360000220FFF76FFF2D210220FFF709FF0D4B21
:102370001B7919460220FFF765FF2D210220FFF788
:10238000FFFE084B9B7819460220FFF75BFF0A21EE
:102390000220FFF7F5FEB2E749240008542F000899
:1023A000602F0008D4000020000000206C2F0008DF
:1023B00080B588B000AF0A490220FFF723FF00BFB5
:1023C0000020FEF7B1FD0346002BF9D03B1D054A66
:1023D00019460020FEF7FEFC00BF2037BD4680BD39
:1023E000842F0008D400002080B483B000AF0346DF
:1023F000FB80FB885B019BB218460C37BD4680BC56
:10240000704780B58AB000AF01237B620023BB61B7
:1024100000237B6140F25D60FFF7E6FF03467B60CF
:102420000023BB600023FB6000233B610023FB61B2
:1024300001233B623B1D1846FEF792FD00BF283783
:10244000BD4680BD0000000080B500AF184BD3E949
:102450000001184BD3E90023FEF7CCFA0346002B0A
:1024600006D00120FEF7F3FB134B00221A7016E092
:10247000114B01221A70114B1B6801330F4A136074
:102480000E4B1B681846FDF7B5FF07A3D3E90023E1
:10249000FEF72AF802460B460549C1E9002300BFB2
:1024A00080BD00BFAFF3008033BBBDC446383D3FA5
:1024B000C8000020C0000020D0000020BC00002088
:1024C00080B500AF0020FEF71BFE0120FEF718FECE
:1024D0000020FEF731FB0120FEF72EFB00BF80BD80
:1024E00090B583B000AF0446084611461A4623460D
:1024F000FB710346BB710B467B7113463B717B79C5
:1025000019460020FEF757FB3B7919460120FEF7DC
:1025100052FBFB7919460020FEF7BEFBBB7919463A
:102520000120FEF7B9FB00BF0C37BD4690BD00008F
:1025300080B586B000AF7860144A154BD31A7B6122
:102540007B693B61134B1B68002B02D1114B124A74
:102550001A60104B1A687B6813443A699A4207D292
:1025600000F046F803460C221A604FF0FF3309E0F2
:10257000084B1B68FB60074B1A687B681344054ACD
:102580001360FB6818461837BD4680BD0050002018
:1025900000040000DC000020F00000200D4885460B
:1025A000AFF300800C480D490D4A002302E0D458D7
:1025B000C4500433C4188C42F9D30A4A0A4C00238D
:1025C00001E013600432A242FBD300F017F8FFF7DA
:1025D00053FEFEE700500020000000206C000020A9
:1025E0000430000870000020F0000020FEE700002A
:1025F000014B1868704700BF0800002070B5002626
:102600000C4D0D4C641BA410A64209D100F094FCA3
:1026100000260A4D0A4C641BA410A64205D170BDC9
:1026200055F8043B98470136EEE755F8043B9847C8
:102630000136F2E7FC2F0008FC2F0008FC2F0008F1
:10264000003000080EB46FF0004100B59CB01DAB27
:1026500002900690079104910848094953F8042B09
:102660000591006802A9019300F068F80022029B1E
:102670001A701CB05DF804EB03B07047080000202E
:102680000802FFFF2DE9F0478E6882469E420C4605
:1026900090461F4638D88A8912F4906F32D0256848
:1026A00009690133A5EB010965694B4405EB450553
:1026B00005EBD5756D109D4238BF1D46530531D5CC
:1026C000294600F06FFB064650B90C234FF0FF304F
:1026D000CAF80030A38943F04003A381BDE8F08726
:1026E0004A46216900F0CEFAA38923F4906343F0AF
:1026F0008003A38126614E4426603E466561A5EBBA
:102700000905A560BE4200D93E46324641462068D2
:1027100000F0C6FAA36800209B1BA3602368334423
:102720002360DBE72A4600F0B1FB06460028E1D132
:102730005046216900F0CEFAC7E700002DE9F04FBE
:1027400098468B8907461B060D4614469DB00ED54C
:102750000B6963B9402100F025FB2860286120B98E
:102760000C233B604FF0FF30D1E040236B6100232E
:10277000099320238DF8293030234FF00109CDF83B
:102780000C80DFF8A4818DF82A3023469A4613F88E
:10279000012B0AB1252AF9D1BAEB040B0BD05B4609
:1027A000224629463846FFF76DFF013000F0AA8027
:1027B000099A5A4409929AF80030002B00F0A2803E
:1027C00000234FF0FF32CDE905230AF1010A0493FB
:1027D00007938DF853301A935446052214F8011BC1
:1027E000514800F041FA049AD8B9D00644BF2023DA
:1027F0008DF85330110744BF2B238DF853309AF8CE
:1028000000302A2B15D0544600204FF00A0C079AAE
:10281000214611F8013B303B092B4ED9B0B107924C
:1028200014E0A0EB080309FA03F31343A246049350
:10283000D2E7039B191D1B680391002BBBBF5B42B2
:1028400042F0020207930793B8BF049223782E2B1D
:102850000CD163782A2B35D1039B02341A1D1B68D7
:102860000392002BB8BF4FF0FF330593DFF8BCA0F5
:1028700003225046217800F0F7F940B14023A0EB45
:102880000A0003FA00F0049B01340343049314F894
:10289000011B062226488DF8281000F0E5F90028D3
:1028A00038D0244B1BBB039B073323F007030833AB
:1028B0000393099B3344099367E70C4601200CFB03
:1028C0000232A5E700234FF00A0C194601340593A4
:1028D000204610F8012B303A092A03D9002BC5D025
:1028E0000591C3E7044601230CFB0121F0E703AB8C
:1028F00000932A463846104B04A9AFF30080421CCF
:102900000646D6D1AB895B063FF52CAF09981DB0C2
:10291000BDE8F08F03AB00932A463846064B04A966
:1029200000F07CF8EBE700BFC62F0008CC2F0008B2
:10293000D02F000800000000852600082DE9F04790
:10294000164699468A680B6907469342B8BF1346F4
:10295000336091F843200C46DDF820800AB1013342
:1029600033602368990642BF3368023333602568B9
:1029700015F0060506D104F1190AE36832689B1ABE
:10298000AB4228DC94F84320131E226818BF0123B1
:1029900092062DD44946384604F14302C04701301F
:1029A00020D02368E56803F00603042B18BF002538
:1029B00032684FF00006A36808BFAD1A226908BF4D
:1029C00025EAE5759342C4BF9B1AED181A34B54247
:1029D0001AD1002008E00123524649463846C04734
:1029E000013003D14FF0FF30BDE8F0870135C4E777
:1029F0003020E11881F843005A1C94F84510224415
:102A0000023382F84310C5E701232246494638467F
:102A1000C0470130E6D00136D9E700002DE9FF4775
:102A20000F7E9146782F80460C469A460C9D01F108
:102A3000430207D8622F0AD8002F00F0D980582F00
:102A400000F0A48004F1420584F842703AE0A7F156
:102A50006303152BF6D801A151F823F0B52A00081D
:102A6000C92A0008452A0008452A0008452A000806
:102A7000452A0008C92A0008452A0008452A0008F6
:102A8000452A0008452A0008D72B0008F92A000823
:102A9000B92B0008452A0008452A0008F92B000830
:102AA000452A0008F92A0008452A0008452A000896
:102AB000C12B00082B681A1D1B682A6004F142050F
:102AC00084F842300123A4E020682968060601F159
:102AD00004030AD50E682B60002E03DA2D237642FC
:102AE00084F843300A235E4819E00E6810F0400F66
:102AF0002B6018BF36B2EFE72B682068191D2960DC
:102B0000010601D51E6802E04606FBD51E886F2F20
:102B10000CBF08230A235248002184F8431065683B
:102B2000002DA8BF2168A560A4BF21F00401216089
:102B30000EB9002D4DD01546B6FBF3F103FB11671E
:102B4000C75D05F8017D3746BB420E46F4D9082B18
:102B50000BD12368DE0708D5236961689942DEBF7F
:102B6000302305F8013C05F1FF35521B22614B462D
:102B700021464046CDF800A003AAFFF7DFFE013052
:102B80004CD14FF0FF3004B0BDE8F087344881F8F5
:102B900045702968236851F8046B29601D0614D517
:102BA000DF0744BF43F0200323601EB9236823F0EE
:102BB000200323601023AFE7236843F02003236042
:102BC0007823284884F84530E3E7590648BFB6B271
:102BD000E6E71546BBE72B682668181D6169286083
:102BE00035061B6801D5196002E07006FBD5198017
:102BF000002315462361BAE72B6800211A1D2A60BD
:102C00001D686268284600F02FF808B1401B60601C
:102C100063682361002384F84330A8E72A464946C5
:102C200040462369D0470130ABD023689B0713D4BB
:102C3000E068039B9842B8BF1846A4E701233246D8
:102C400049464046D04701309BD00135E36803999F
:102C50005B1AAB42F2DCEBE7002504F11906F5E75D
:102C6000D72F0008E82F0008034610B5C9B2024468
:102C70009342184601D1002003E0047801338C42CE
:102C8000F6D110BD0A44914200F1FF3300D17047E4
:102C900010B511F8014B914203F8014FF9D110BD65
:102CA000884210B501EB020402D98442234607D8BA
:102CB000431EA14208D011F8012B03F8012FF8E7B9
:102CC000014602448A4200D110BD13F8014D02F8BA
:102CD000014DF7E738B50546002940D051F8043CCE
:102CE0000C1F002BB8BFE41800F010F91C4A136841
:102CF00033B9636014602846BDE8384000F00CB971
:102D0000A34208D9206821188B4201BF19685B686B
:102D100009182160EDE71A465B680BB1A342FAD9A6
:102D200011685018A0420BD120680144501883420A
:102D30001160E0D118685B68014411605360DAE704
:102D400002D90C232B60D6E7206821188B4201BFE3
:102D500019685B680918216063605460CBE738BD6F
:102D6000E000002070B50E4E0C463168054611B9E2
:102D700000F0BCF830602146284600F0B7F8431C4C
:102D80000AD0C41C24F00304A04207D0211A28460C
:102D900000F0ACF8013001D14FF0FF34204670BD97
:102DA000E40000202DE9F041CD1C25F00305083595
:102DB0000C2D38BF0C25002D074601DBA94205D993
:102DC0000C2300263B603046BDE8F0812E4E00F01B
:102DD0009DF833681C4634BB29463846FFF7C2FFCE
:102DE000431C04464DD134682646002E40D123684A
:102DF0003146384604EB030800F078F880453AD1B4
:102E0000216803356D1A25F0030508350C2D38BFF0
:102E10000C2538462946FFF7A5FF01302BD0236843
:102E20002B4423600EE02268521B1ED40B2A16D9B5
:102E30006119A342256018BF5960636808BF3160FB
:102E400062514B60384604F10B0600F065F826F03D
:102E50000706231DF21AB6D09B1BA350B3E7626886
:102E6000A3420CBF32605A60ECE723466468B2E7C5
:102E700034467668B9E70C2338463B6000F04CF8DE
:102E8000A1E72560DEE700BFE00000202DE9F0416A
:102E9000804614460E4621B91146BDE8F041FFF7C1
:102EA00081BF2AB9FFF716FF25462846BDE8F08105
:102EB00000F038F88442074602D8B4EB500F12D81D
:102EC00021464046FFF76EFF05460028EDD0BC4284
:102ED0002246314628BF3A46FFF7D4FE31464046E7
:102EE000FFF7F8FEE1E73546DFE7000038B50023DD
:102EF000054D044608462B60FFF71AFB431C02D120
:102F00002B6803B1236038BDE8000020014800F0C1
:102F100011B800BFEC000020014800F00CB800BF61
:102F2000EC00002051F8043C181F002BBCBF0B58CC
:102F3000C018704770477047F8B500BFF8BC08BCB0
:102F40009E467047F8B500BFF8BC08BC9E46704767
:102F5000256400006E6F64652073746172740A00EA
:102F600043414E2046494E4953480A0043414E20B2
:102F7000524543454956452041200A004E4F44459D
:102F8000000000002F2F2F2F2F2F2F2F2F2F2F2F0D
:102F90002F000000204D5347205452414E534D49BD
:102FA000544544206D30200A00000000000000005D
:102FB0000000000000000000000000000000000011
:102FC000000000000000232D302B2000686C4C0016
:102FD0006566674546470030313233343536373819
:102FE0003941424344454600303132333435363777
:0C2FF0003839616263646566000000000F
:042FFC005501000873
:043000003101000892
:10300400001E3C5A7896B4000C000020000000001A
:1030140000000000000000000000000000000000AC
:10302400000000000000000000000000000000009C
:10303400000000000000000000000000000000008C
:10304400000000000000000000000000000000007C
:10305400000000000000000000000000000000006C
:0C30640000000000000000000000000060
:040000050800259D2D
:00000001FF
