:020000040800F2
:100000000050002085230008D5230008D5230008D0
:10001000D5230008D5230008D523000800000000E0
:10002000000000000000000000000000D5230008D0
:10003000D523000800000000D5230008311800086F
:10004000D5230008D5230008D5230008D5230008B0
:10005000D5230008D5230008D5230008D5230008A0
:10006000D5230008D5230008D5230008D523000890
:10007000D5230008D5230008D5230008D523000880
:10008000D5230008D5230008D5230008D523000870
:10009000D5230008D5230008D5230008D523000860
:1000A000D5230008D5230008D5230008D523000850
:1000B000D5230008D5230008D5230008D523000840
:1000C000D5230008D5230008D5230008D523000830
:1000D000D5230008D5230008D5230008D523000820
:1000E000D5230008D523000800000000D523000810
:1000F000D5230008D5230008D5230008D523000800
:10010000D5230008D5230008D5230008D5230008EF
:10011000D5230008D5230008D5230008D5230008DF
:10012000D5230008D5230008D5230008D5230008CF
:1001300010B5054C237833B9044B13B10448AFF321
:1001400000800123237010BD00000020000000008B
:100150002024000808B5034B1BB103490348AFF343
:10016000008008BD000000000400002020240008DA
:1001700081F0004102E000BF83F0004330B54FEA58
:1001800041044FEA430594EA050F08BF90EA020FC5
:100190001FBF54EA000C55EA020C7FEA645C7FEA58
:1001A000655C00F0E2804FEA5454D4EB5555B8BF7B
:1001B0006D420CDD2C4480EA020281EA030382EAEC
:1001C000000083EA010180EA020281EA0303362D7E
:1001D00088BF30BD11F0004F4FEA01314FF4801C51
:1001E0004CEA113102D0404261EB410113F0004F63
:1001F0004FEA03334CEA133302D0524263EB43031A
:1002000094EA050F00F0A780A4F10104D5F1200EB7
:100210000DDB02FA0EFC22FA05F2801841F1000112
:1002200003FA0EF2801843FA05F359410EE0A5F1E6
:1002300020050EF1200E012A03FA0EFC28BF4CF017
:10024000020C43FA05F3C01851EBE37101F00045CD
:1002500007D54FF0000EDCF1000C7EEB00006EEBDA
:100260000101B1F5801F1BD3B1F5001F0CD3490864
:100270005FEA30004FEA3C0C04F101044FEA4452BB
:1002800012F5800F80F09A80BCF1004F08BF5FEA42
:10029000500C50F1000041EB045141EA050130BD22
:1002A0005FEA4C0C404141EB0101013C28BFB1F534
:1002B000801FE9D291F0000F04BF01460020B1FA7F
:1002C00081F308BF2033A3F10B03B3F120020CDA52
:1002D0000C3208DD02F1140CC2F10C0201FA0CF030
:1002E00021FA02F10CE002F11402D8BFC2F1200C95
:1002F00001FA02F120FA0CFCDCBF41EA0C0190404B
:10030000E41AA2BF01EB0451294330BD6FEA040493
:100310001F3C1CDA0C340EDC04F11404C4F120027E
:1003200020FA04F001FA02F340EA030021FA04F390
:1003300045EA030130BDC4F10C04C4F1200220FAE7
:1003400002F001FA04F340EA0300294630BD21FA25
:1003500004F0294630BD94F0000F83F4801306BFEB
:1003600081F480110134013D4EE77FEA645C18BFDF
:100370007FEA655C29D094EA050F08BF90EA020F76
:1003800005D054EA000C04BF1946104630BD91EA6E
:10039000030F1EBF0021002030BD5FEA545C05D171
:1003A0004000494128BF41F0004130BD14F58004B0
:1003B0003CBF01F5801130BD01F0004545F0FE4124
:1003C00041F470014FF0000030BD7FEA645C1ABF59
:1003D000194610467FEA655C1CBF0B46024650EA90
:1003E000013406BF52EA033591EA030F41F40021BC
:1003F00030BD00BF90F0000F04BF0021704730B542
:100400004FF4806404F132044FF000054FF0000116
:1004100050E700BF90F0000F04BF0021704730B5D7
:100420004FF4806404F1320410F0004548BF4042AC
:100430004FF000013EE700BF42004FEAE2014FEA01
:1004400031014FEA02701FBF12F07F4393F07F4FDC
:1004500081F06051704732F07F4208BF704793F0DF
:100460007F4F04BF41F40021704730B54FF46074F2
:1004700001F0004521F000411CE700BF50EA0102F5
:1004800008BF704730B54FF000050AE050EA01029E
:1004900008BF704730B511F0004502D5404261EB0E
:1004A00041014FF4806404F132045FEA915C3FF44F
:1004B000D8AE4FF003025FEADC0C18BF03325FEAEC
:1004C000DC0C18BF033202EBDC02C2F1200300FA9D
:1004D00003FC20FA02F001FA03FE40EA0E0021FAC2
:1004E00002F11444BDE600BF70B54FF0FF0C4CF4B0
:1004F000E06C1CEA11541DBF1CEA135594EA0C0F62
:1005000095EA0C0F00F0DEF82C4481EA030621EA9C
:100510004C5123EA4C5350EA013518BF52EA0335D7
:1005200041F4801143F4801338D0A0FB02CE4FF089
:100530000005E1FB02E506F00042E0FB03E54FF0B9
:100540000006E1FB03569CF0000F18BF4EF0010EB1
:10055000A4F1FF04B6F5007F64F5407404D25FEAAD
:100560004E0E6D4146EB060642EAC62141EA555160
:100570004FEAC52040EA5E504FEACE2EB4F1FD0CA2
:1005800088BFBCF5E06F1ED8BEF1004F08BF5FEA20
:10059000500E50F1000041EB045170BD06F00046D2
:1005A00046EA010140EA020081EA0301B4EB5C047F
:1005B000C2BFD4EB0C0541EA045170BD41F4801177
:1005C0004FF0000E013C00F3AB8014F1360FDEBF9C
:1005D000002001F0004170BDC4F10004203C35DA78
:1005E0000C341BDC04F11404C4F1200500FA05F3FB
:1005F00020FA04F001FA05F240EA020001F000429C
:1006000021F0004110EBD37021FA04F642EB060111
:100610005EEA430E08BF20EAD37070BDC4F10C043B
:10062000C4F1200500FA04F320FA05F001FA04F2FF
:1006300040EA020001F0004110EBD37041F10001EB
:100640005EEA430E08BF20EAD37070BDC4F12005F6
:1006500000FA05F24EEA020E20FA04F301FA05F25E
:1006600043EA020321FA04F001F0004121FA04F206
:1006700020EA020000EBD3705EEA430E08BF20EAD6
:10068000D37070BD94F0000F0FD101F00046400010
:1006900041EB010111F4801F08BF013CF7D041EA92
:1006A000060195F0000F18BF704703F00046520096
:1006B00043EB030313F4801F08BF013DF7D043EA67
:1006C0000603704794EA0C0F0CEA135518BF95EA1D
:1006D0000C0F0CD050EA410618BF52EA4306D1D1A4
:1006E00081EA030101F000414FF0000070BD50EAC3
:1006F000410606BF1046194652EA430619D094EA4D
:100700000C0F02D150EA013613D195EA0C0F05D136
:1007100052EA03361CBF104619460AD181EA03018A
:1007200001F0004141F0FE4141F470014FF0000042
:1007300070BD41F0FE4141F4780170BD70B54FF0DD
:10074000FF0C4CF4E06C1CEA11541DBF1CEA13555D
:1007500094EA0C0F95EA0C0F00F0A7F8A4EB05043F
:1007600081EA030E52EA03354FEA013100F0888036
:100770004FEA03334FF0805545EA131343EA1263FF
:100780004FEA022245EA111545EA10654FEA0026B4
:100790000EF000419D4208BF964244F1FD0404F56D
:1007A000407402D25B084FEA3202B61A65EB0305C9
:1007B0005B084FEA32024FF480104FF4002CB6EB86
:1007C000020E75EB030E22BFB61A754640EA0C0006
:1007D0005B084FEA3202B6EB020E75EB030E22BF46
:1007E000B61A754640EA5C005B084FEA3202B6EB87
:1007F000020E75EB030E22BFB61A754640EA9C0046
:100800005B084FEA3202B6EB020E75EB030E22BF15
:10081000B61A754640EADC0055EA060E18D04FEAD3
:10082000051545EA16754FEA06164FEAC30343EA73
:1008300052734FEAC2025FEA1C1CC0D111F4801F40
:100840000BD141EA00014FF000004FF0004CB6E739
:1008500011F4801F04BF01430020B4F1FD0C88BFD8
:10086000BCF5E06F3FF6AFAEB5EB030C04BFB6EBE3
:10087000020C5FEA500C50F1000041EB045170BDD6
:100880000EF0004E4EEA113114EB5C04C2BFD4EB03
:100890000C0541EA045170BD41F480114FF0000E87
:1008A000013C90E645EA060E8DE60CEA135594EA03
:1008B0000C0F08BF95EA0C0F3FF43BAF94EA0C0F06
:1008C0000AD150EA01347FF434AF95EA0C0F7FF47B
:1008D00025AF104619462CE795EA0C0F06D152EACF
:1008E00003353FF4FDAE1046194622E750EA4106B3
:1008F00018BF52EA43067FF4C5AE50EA41047FF4C4
:100900000DAF52EA43057FF4EBAE12E74A0011D275
:1009100012F5001211D20DD56FF47873B3EB625259
:100920000ED44FEAC12343F0004343EA505323FA65
:1009300002F070474FF00000704750EA013002D1DA
:100940004FF0FF3070474FF00000704780B500AFA8
:1009500000F0B8FF0021022000F074FF00BF80BD4E
:1009600080B400AF044B5B68034A43F0806353607C
:1009700000BFBD4680BC70470000014080B500AF9D
:100980001921012000F05EFF0221022000F05AFF31
:10099000002000F0E5F904220B21002000F0F2F91C
:1009A0000A220C21002000F0EDF9274B1B68264A93
:1009B00023F00203136000BF234B5B6803F00203C4
:1009C000002BF9D1204B1B681F4A43F00103136031
:1009D00000BF1D4B5B6803F00103012BF9D11A4BDB
:1009E0001B68194A23F004031360174B1B68164A4F
:1009F00023F008031360144B1B68134A23F0100301
:100A00001360114B1B68104A43F0200313600E4B18
:100A10001B680D4A43F0400313600B4B1B680A4AE6
:100A200023F0800313600223013B1B051A460D23AC
:100A3000013B1B0413430122013A1146024A0B43B6
:100A4000D36100BF80BD00BF0064004080B485B0AA
:100A500000AF786039604E4B9B68FB60FB6803F029
:100A60008063002B0AD1FB6803F00063002B05D1E3
:100A7000FB6803F08053002B00F08480FB681B0EA2
:100A800003F00303BB60BB68022B7BD87B689B68C9
:100A9000002B0CD17B681B685A057B68DB683C49DE
:100AA0001A43BB6818331B010B441A600EE07B68C5
:100AB0005B68DA007B689B681A437B68DB683449B3
:100AC0001A43BB6818331B010B441A6030497B681A
:100AD0001A69BB6818331B010B4404331A607B6826
:100AE0001B7D012B0FD12A4ABB6818331B0113440D
:100AF00004331B68264943F48072BB6818331B011A
:100B00000B4404331A603B6807331B781A063B68B2
:100B100006331B781B041A433B6805331B781B0202
:100B200013433A680432127819491A43BB681B010F
:100B30000B4403F5C6731A603B6803331B781A062F
:100B40003B6802331B781B041A433B6801331B7854
:100B50001B0213433A6812780D491A43BB681B0104
:100B60000B4403F5C4731A60094ABB6818331B01B0
:100B700013441B68064943F00102BB6818331B018C
:100B80000B441A6000BF1437BD4680BC704700BFDD
:100B90000064004080B400AF084B1B68074A23F094
:100BA0000103136000BF054B5B6803F00103002BDA
:100BB000F9D100BF00BFBD4680BC70470064004053
:100BC00080B485B000AF7860644BD3F80032634ADC
:100BD00043F00103C2F800327B685B69FB605F4B46
:100BE000D3F81C327A685269012101FA02F2D24329
:100BF00011465A4A0B40C2F81C327B68DB69002B55
:100C000028D1564BD3F80C320121FA6801FA02F2CE
:100C1000D2431146514A0B40C2F80C327B68DB6864
:100C200019047B685B689AB24C487B685B690A432D
:100C3000483340F833207B689B6819047B681B6845
:100C40009AB246487B685B690A434833DB00034439
:100C50005A602AE07B68DB69012B26D13F4BD3F831
:100C60000C320121FA6801FA02F211463B4A0B43A9
:100C7000C2F80C327B681B6819047B685B689AB207
:100C800036487B685B690A43483340F833207B6809
:100C90009B6819047B68DB689AB230487B685B69A3
:100CA0000A434833DB0003445A607B689B69002B8E
:100CB0000DD12A4BD3F804320121FA6801FA02F26D
:100CC000D2431146254A0B40C2F804320BE0234BB5
:100CD000D3F804320121FA6801FA02F211461F4AE0
:100CE0000B43C2F804327B681B69002B0DD11B4BF0
:100CF000D3F814320121FA6801FA02F2D243114604
:100D0000164A0B40C2F814320BE0144BD3F81432DD
:100D10000121FA6801FA02F21146104A0B43C2F8A7
:100D200014327B681B6A012B0BD10C4BD3F81C329D
:100D30000121FA6801FA02F21146084A0B43C2F88F
:100D40001C32064BD3F80032044A23F00103C2F8E8
:100D5000003200BF1437BD4680BC704700640040BD
:100D600080B582B000AF0346FB7100F0ABFDFB79AC
:100D700002331946022000F065FD00BF0837BD466A
:100D800080BD000080B483B000AF0346FB710B460A
:100D9000BB7113467B71FB79022B00F0B380022BF1
:100DA00000F30A81002B02D0012B56D004E1BB795D
:100DB000072B17D8834B1B68BA7992000F2101FAD1
:100DC00002F2D24311467F4A0B4013607D4B1B68F1
:100DD0007979BA79920001FA02F21146794A0B4305
:100DE00013601CE0BB790F2B19D8BB79083BBB7192
:100DF000754B1B68BA7992000F2101FA02F2D243B7
:100E00001146714A0B4013606F4B1B687979BA79B0
:100E1000920001FA02F211466B4A0B4313607B7990
:100E2000082B0BD1694B1B68BA79012101FA02F238
:100E3000D2431146654A0B401360B8E07B79082B1A
:100E400040F0B580614B1B68BA79012101FA02F2CA
:100E500011465E4A0B431360A9E0BB79072B17D8F4
:100E60005B4B1B68BA7992000F2101FA02F2D24360
:100E70001146574A0B401360554B1B687979BA7974
:100E8000920001FA02F21146514A0B4313601CE032
:100E9000BB790F2B19D8BB79083BBB714D4B1B6835
:100EA000BA7992000F2101FA02F2D2431146494A5F
:100EB0000B401360474B1B687979BA79920001FAAD
:100EC00002F21146434A0B4313607B79082B0BD186
:100ED000414B1B68BA79012101FA02F2D243114653
:100EE0003D4A0B40136064E07B79082B61D13A4B9B
:100EF0001B68BA79012101FA02F21146364A0B4306
:100F0000136056E0BB79072B17D8344B1B68BA79AE
:100F100092000F2101FA02F2D24311462F4A0B40F0
:100F200013602E4B1B687979BA79920001FA02F2AC
:100F300011462A4A0B4313601CE0BB790F2B19D8CA
:100F4000BB79083BBB71264B1B68BA7992000F2115
:100F500001FA02F2D2431146214A0B401360204BA2
:100F60001B687979BA79920001FA02F211461C4A9B
:100F70000B4313607B79082B0BD11A4B1B68BA7992
:100F8000012101FA02F2D2431146164A0B401360C6
:100F900011E07B79082B0ED1124B1B68BA79012125
:100FA00001FA02F211460F4A0B43136003E000BF3F
:100FB00002E000BF00E000BF00BF0C37BD4680BCB0
:100FC000704700BF00080140040801400C080140C0
:100FD000000C0140040C01400C0C014000100140C9
:100FE000041001400C10014080B483B000AF0346F0
:100FF000FB710B46BB7113467B71FB79022B40D012
:10100000022B60DC002B02D0012B1DD05BE07B7932
:10101000012B0AD12E4B1B68BA79012101FA02F289
:1010200011462B4A0B43136048E07B79002B45D1D6
:10103000274B1B68BA79012101FA02F2D24311460B
:10104000234A0B40136039E07B79012B0AD1214BF5
:101050001B68BA79012101FA02F211461D4A0B43BD
:1010600013602DE07B79002B2AD11A4B1B68BA79CB
:10107000012101FA02F2D2431146164A0B401360D5
:101080001EE07B79012B0AD1134B1B68BA79012131
:1010900001FA02F21146104A0B43136012E07B7909
:1010A000002B0FD10C4B1B68BA79012101FA02F217
:1010B000D2431146084A0B40136003E000BF02E030
:1010C00000BF00E000BF00BF0C37BD4680BC7047CA
:1010D0000C0801400C0C01400C10014080B483B09E
:1010E00000AF03460A46FB711346BB71FB79022B26
:1010F0001AD0022B22DC002B02D0012B0AD01DE0DB
:10110000114B1A68BB7922FA03F3DBB203F0010337
:10111000DBB214E00D4B1A68BB7922FA03F3DBB2A1
:1011200003F00103DBB20AE0094B1A68BB7922FA2B
:1011300003F3DBB203F00103DBB200E00023184647
:101140000C37BD4680BC704708080140080C0140C0
:101150000810014080B483B000AF03460A46FB711B
:101160001346BB71FB79022B00F05581022B00F373
:10117000E281002B03D0012B00F0BD80DBE1BB79C5
:10118000032B00F2A78001A252F823F09D11000862
:10119000EB11000839120008871200084FF0804355
:1011A0009B694FF0804243F0010393614FF080430D
:1011B0009B694FF0804243F0200393614FF08043DE
:1011C0001B6A4FF0804243F0020313624FF08043EA
:1011D0004FF080429B6993614FF080431B6A4FF050
:1011E000804243F00103136274E04FF080439B6937
:1011F0004FF0804243F4807393614FF080439B69CA
:101200004FF0804243F4005393614FF080431B6AD8
:101210004FF0804243F0200313624FF080434FF0C1
:1012200080429B6993614FF080431B6A4FF080427C
:1012300043F0100313624DE04FF08043DB694FF041
:10124000804243F00103D3614FF08043DB694FF0EC
:10125000804243F02003D3614FF080431B6A4FF07C
:10126000804243F4007313624FF080434FF080429A
:10127000DB69D3614FF080431B6A4FF0804243F437
:101280008073136226E04FF08043DB694FF08042A9
:1012900043F48073D3614FF08043DB694FF08042A9
:1012A00043F40053D3614FF080431B6A4FF08042F8
:1012B00043F4005313624FF080434FF08042DB69E8
:1012C000D3614FF080431B6A4FF0804243F4805358
:1012D000136200BF4FF080431B684FF0804223F041
:1012E000100313604FF0804300225A624FF0804396
:1012F00007229A621FE1BB79032B7FD801A252F823
:1013000023F000BF151300084F13000889130008CD
:10131000C31300088A4B9B69894A43F00103936118
:10132000874B9B69864A43F020039361844B1B6A79
:10133000834A43F002031362814B814A9B699361A4
:101340007F4B1B6A7E4A43F00103136256E07C4BDD
:101350009B697B4A43F480739361794B9B69784A1C
:1013600043F400539361764B1B6A754A43F02003A4
:101370001362734B724A9B699361714B1B6A704A8B
:1013800043F01003136239E06D4BDB696C4A43F0A4
:101390000103D3616A4BDB69694A43F02003D361DF
:1013A000674B1B6A664A43F400731362644B644ADA
:1013B000DB69D361624B1B6A614A43F48073136239
:1013C0001CE05F4BDB695E4A43F48073D3615C4B86
:1013D000DB695B4A43F40053D361594B1B6A584A9B
:1013E00043F400531362564B554ADB69D361544BA7
:1013F0001B6A534A43F48053136200BF504B1B686F
:101400004F4A23F0100313604D4B00225A624C4B9D
:1014100007229A628FE0BB79032B7FD801A252F892
:1014200023F000BF351400086F140008A914000849
:10143000E3140008434B9B69424A43F00103936164
:10144000404B9B693F4A43F0200393613D4B1B6A2D
:101450003C4A23F0020313623A4B3A4A9B69936178
:10146000384B1B6A374A43F00103136256E0354B91
:101470009B69344A43F480739361324B9B69314AD0
:1014800043F4005393612F4B1B6A2E4A23F0200331
:1014900013622C4B2B4A9B6993612A4B1B6A294A86
:1014A00043F01003136239E0264BDB69254A43F011
:1014B0000103D361234BDB69224A43F02003D3614C
:1014C000204B1B6A1F4A23F4007313621D4B1D4AF5
:1014D000DB69D3611B4B1B6A1A4A43F480731362A6
:1014E0001CE0184BDB69174A43F48073D361154B3A
:1014F000DB69144A43F40053D361124B1B6A114A4F
:1015000023F4005313620F4B0E4ADB69D3610D4B7A
:101510001B6A0C4A43F48053136200BF094B1B68DB
:10152000084A23F010031360064B00225A62054B51
:1015300000229A6200BF00BF0C37BD4680BC7047D6
:10154000000400400008004080B485B000AF0346AE
:101550003960FB710023FB730023BB7300237B7393
:1015600000233B73FB79002B03D0012B00F0948008
:1015700016E14FF0804300225A624FF080431B680F
:101580004FF0804243F0010313604FF080431B692A
:101590004FF0804223F0010313614FF080435B6AF8
:1015A00042F66A5293422FD04FF080431B6903F0FA
:1015B0000103012B2AD04FF080431B695B0803F025
:1015C0000103012B01D10123FB734FF080431B6901
:1015D0009B0803F00103012B01D10123BB734FF0E2
:1015E00080431B69DB0803F00103012B01D10123B8
:1015F0007B734FF080431B691B0903F00103012B30
:10160000CBD101233B73C8E700BF00E000BF4FF020
:1016100080431B684FF0804223F0010313604FF0BA
:1016200080435B6BA3F17D023B681A604FF08043FF
:101630009A6B3B6804337D3A1A604FF08043DA6B53
:101640003B6808337D3A1A604FF080431A6C3B6860
:101650000C337D3A1A60FB7B002B03D13B684FF6BD
:10166000FF721A60BB7B002B04D13B6804334FF63A
:10167000FF721A607B7B002B04D13B6808334FF666
:10168000FF721A603B7B002B40F087803B680C3375
:101690004FF6FF721A6080E0444B00225A62434BBF
:1016A0001B68424A43F001031360404B1B693F4AE9
:1016B00023F0010313613D4B5B6A42F66A52934289
:1016C0002AD03A4B1B6903F00103012B26D0374B7C
:1016D0001B695B0803F00103012B01D10123FB739C
:1016E000324B1B699B0803F00103012B01D101233D
:1016F000BB732E4B1B69DB0803F00103012B01D1E7
:1017000001237B73294B1B691B0903F00103012B88
:10171000D1D101233B73CEE700BF00E000BF234BD4
:101720001B68224A23F001031360204B5B6BA3F17B
:101730007D023B681A601D4B9A6B3B6804337D3A0F
:101740001A601A4BDA6B3B6808337D3A1A60174B04
:101750001A6C3B680C337D3A1A60FB7B002B03D17B
:101760003B684FF6FF721A60BB7B002B04D13B68CD
:1017700004334FF6FF721A607B7B002B04D13B6869
:1017800008334FF6FF721A603B7B002B07D13B6892
:101790000C334FF6FF721A6001E000BF00E000BF9B
:1017A00000BF1437BD4680BC704700BF0004004036
:1017B00080B400AF074B1B68064A43F00403136074
:1017C000044B1B68034A23F00203136000BFBD46AD
:1017D00080BC704710E000E080B483B000AF786058
:1017E0000A4A7B6813600A4B1B68094A43F00103ED
:1017F000136000BF064B1B6803F48033002BF9D045
:1018000000BF00BF0C37BD4680BC704714E000E04D
:1018100010E000E080B582B000AF78607B68DB004C
:101820007B607868FFF7D8FF00BF0837BD4680BDF2
:1018300080B500AF024B1B68984700BF80BD00BF5A
:101840001C00002080B483B000AF03463960FB71F8
:101850003B681F2B2AD8FB79022B1CD0022B25DCDE
:10186000002B02D0012B0BD020E0134B1B68012171
:101870003A6801FA02F211460F4A0B43136015E071
:101880000E4B1B6801213A6801FA02F211460B4A1D
:101890000B4313600AE00A4B1B6801213A6801FA06
:1018A00002F21146064A0B43136000BF00BF0C371B
:1018B000BD4680BC704700BF141002401C1002409F
:1018C0001810024080B400AF0C4B4FF480321A6005
:1018D0000B4B1B680A4A43F001031360084B084A8C
:1018E0001B681360064B064A1B681360044B044ACE
:1018F0001B68136000BFBD4680BC704700100240EB
:101900000410024080B483B000AF0346FB71FB7942
:10191000022B44D0022B61DC002B02D0012B1FD004
:101920005CE0314BDB68304A43F40053D3602E4B0C
:10193000DB682D4A23F48053D3602B4B9B682A4AE3
:1019400043F006039360284B9B68274A43F040030B
:101950009360254BDB68244A43F00803D3603DE0E5
:10196000224BDB68214A43F40053D3601F4BDB68F2
:101970001E4A23F48053D3601C4B9B681B4A43F0E0
:1019800006039360194B9B68184A43F04003936029
:10199000164BDB68154A43F00803D3601EE0144B76
:1019A000DB68134A43F40053D360114BDB68104AE1
:1019B00023F48053D3600E4B9B680D4A43F002031F
:1019C00093600B4B9B680A4A43F450739360084B37
:1019D000DB68074A43F00803D36000BF00BF0C3741
:1019E000BD4680BC704700BF003801400044004045
:1019F0000048004080B483B000AF03460A46FB7144
:101A00001346BB71FB79022B1CD0022B25DC002B6B
:101A100002D0012B0BD020E000BF124B1B6803F05B
:101A20004003002BF9D00F4ABB79536015E000BF8B
:101A30000D4B1B6803F04003002BF9D00A4ABB7919
:101A400053600AE000BF094B1B6803F04003002B02
:101A5000F9D0064ABB79536000BF00BF0C37BD46C2
:101A600080BC7047003801400044004000480040FE
:101A700080B584B000AF03463960FB710023FB736F
:101A80000BE0FB7B3A6813441A78FB791146184641
:101A9000FFF7B0FFFB7B0133FB73FB7B3A6813441A
:101AA0001B78002BEDD100BF00BF1037BD4680BDB5
:101AB00080B582B000AF0346FB71FFF703FFFFF76D
:101AC00077FEFB79002B02D0012B39D071E0002189
:101AD0000120FFF7B7FE00210020FFF73BFB0121AB
:101AE0000020FFF737FB02210020FFF733FB032123
:101AF0000020FFF72FFB0020FFF732F90120FFF74E
:101B00002FF9042200210020FFF73CF904220121D3
:101B10000020FFF737F9042202210020FFF732F9F5
:101B2000042203210020FFF72DF9012203210120C7
:101B3000FFF728F9002203210120FFF755FA38E0CA
:101B400001210120FFF77EFE00210120FFF702FBAB
:101B500001210120FFF7FEFA02210120FFF7FAFA26
:101B600003210120FFF7F6FA0020FFF7F9F8012022
:101B7000FFF7F6F8042206210020FFF703F90422FC
:101B800007210020FFF7FEF8042200210120FFF7C3
:101B9000F9F8042201210120FFF7F4F801220421C1
:101BA0000120FFF7EFF8002204210120FFF71CFAC3
:101BB00000BF00BF0837BD4680BD00000000000028
:101BC00090B587B000AF03463960FB71FB79002BFD
:101BD00003D0012B00F096802BE10022032101208D
:101BE000FFF702FA0520FFF715FE0122032101206D
:101BF000FFF7FAF90A20FFF70DFE0022032101206A
:101C0000FFF7F2F907F1080319460020FFF79CFCE3
:101C1000BB685B081846FEF7EDFB89A3D3E90023F8
:101C2000FEF78CFD02460B4610461946FEF76EFE87
:101C300002463B681A60FB685B081846FEF7DAFB51
:101C40007FA3D3E90023FEF779FD02460B46104639
:101C500019463B681C1DFEF759FE034623603B698D
:101C60005B081846FEF7C6FB75A3D3E90023FEF711
:101C700065FD02460B46104619463B6803F1080411
:101C8000FEF744FE034623607B695B081846FEF7B7
:101C9000B1FB6BA3D3E90023FEF750FD02460B46D0
:101CA000104619463B6803F10C04FEF72FFE03466D
:101CB0002360BB684FF6FF72934203D13B684FF637
:101CC000FF721A60FB684FF6FF72934204D13B68C3
:101CD00004334FF6FF721A603B694FF6FF7293426E
:101CE00004D13B6808334FF6FF721A607B694FF6E8
:101CF000FF72934240F09A803B680C334FF6FF72BC
:101D00001A6093E0002204210120FFF76DF90520FD
:101D1000FFF780FD012204210120FFF765F90A2069
:101D2000FFF778FD002204210120FFF75DF907F19C
:101D3000080319460120FFF707FCBB685B0818463B
:101D4000FEF758FB3EA3D3E90023FEF7F7FC02465B
:101D50000B4610461946FEF7D9FD02463B681A604D
:101D6000FB685B081846FEF745FB35A3D3E9002363
:101D7000FEF7E4FC02460B46104619463B681C1D64
:101D8000FEF7C4FD034623603B695B081846FEF777
:101D900031FB2BA3D3E90023FEF7D0FC02460B4610
:101DA000104619463B6803F10804FEF7AFFD0346F1
:101DB00023607B695B081846FEF71CFB20A3D3E970
:101DC0000023FEF7BBFC02460B46104619463B6853
:101DD00003F10C04FEF79AFD03462360BB684FF63F
:101DE000FF72934203D13B684FF6FF721A60FB68A3
:101DF0004FF6FF72934204D13B6804334FF6FF72F3
:101E00001A603B694FF6FF72934204D13B68083376
:101E10004FF6FF721A607B694FF6FF72934207D14B
:101E20003B680C334FF6FF721A6001E000BF00E020
:101E300000BF00BF1C37BD4690BD00BFAFF30080A0
:101E40009A99999999193D4080B500AF0020FEF705
:101E500087FF082204210020FEF794FF08220521B5
:101E60000020FEF78FFF082208210020FEF78AFFDE
:101E700002490020FFF7FCFD00BF80BD38240008A8
:101E800080B500AF174B00221A7004210020FFF725
:101E900025F90346012B06D1124B1B7843F00103B1
:101EA000DAB2104B1A7005210020FFF717F903462C
:101EB000012B06D10B4B1B7843F00203DAB2094B1E
:101EC0001A7008210020FFF709F90346012B06D1FB
:101ED000044B1B7843F00403DAB2024B1A7000BFC4
:101EE00080BD00BF6700002080B500AF704B1B783D
:101EF000013B052B00F2DA8001A252F823F000BF6B
:101F0000191F00086B1F000835200008BD1F0008BE
:101F100071200008F91F0008664B4F221A70664BAB
:101F20001B681B0ADAB2634B5A70634B1B68DAB248
:101F3000604B9A70604B1B691B0ADAB25D4BDA701A
:101F40005D4B1B69DAB25B4B1A715B4B5B691B0A19
:101F5000DAB2584B5A71584B5B69DAB2554B9A71E9
:101F600054495648FEF772FDA0E0524B51221A70B8
:101F7000514B9B681B0ADAB24E4B5A704E4B9B6812
:101F8000DAB24C4B9A704C4BDB691B0ADAB2494B04
:101F9000DA70494BDB69DAB2464B1A71464B9B69E2
:101FA0001B0ADAB2434B5A71434B9B69DAB2414B7D
:101FB0009A7140494248FEF749FD77E03D4B522275
:101FC0001A703D4B1B691B0ADAB23A4B5A703A4BF6
:101FD0001B69DAB2374B9A70374BDB681B0ADAB2EF
:101FE000344BDA70344BDB68DAB2324B1A71314958
:101FF0003448FEF72BFD59E02E4B53221A702E4B1E
:102000005B691B0ADAB22B4B5A702B4B5B69DAB255
:10201000284B9A70284B5B681B0ADAB2254BDA70A2
:10202000254B5B68DAB2234B1A7122492648FEF72A
:102030000DFD3BE01F4B54221A701F4BDB691B0A3E
:10204000DAB21C4B5A701C4BDB69DAB2194B9A702E
:10205000194BDB681B0ADAB2164BDA70164BDB68D9
:10206000DAB2144B1A7113491848FEF7EFFC1DE061
:10207000104B55221A70104B9B691B0ADAB20D4B9C
:102080005A700D4B9B69DAB20A4B9A700A4B5B6827
:102090001B0ADAB2074BDA70074B5B68DAB2054B02
:1020A0001A7104490A48FEF7D1FC00BF00BF80BD89
:1020B000670000206000002040000020B0000020E9
:1020C000C8000020E0000020F800002010010020DF
:1020D0002801002080B582B000AF1A490120FFF727
:1020E0006FFD19490020FFF76BFD0023FB710023F2
:1020F000FB710AE0FA79FB79124951F82220134961
:1021000041F82320FB790133FB71FB79032BF1D9D3
:102110000023FB710DE0FB79C3F10702FB79043367
:10212000084951F82220094941F82320FB7901335D
:10213000FB71FB79032BEED900BF00BF0837BD460A
:1021400080BD00BF200000203000002040000020A3
:1021500080B483B000AF0346FB80FB885B019BB279
:1021600018460C37BD4680BC704780B58AB000AFBA
:1021700001237B620023BB6100237B6140F25D6031
:10218000FFF7E6FF03467B600023BB600023FB6094
:1021900000233B610023FB6101233B623B1D18468A
:1021A000FEF70EFD00BF2837BD4680BD80B400AFEE
:1021B000454B51221A60444B00229A60424B002248
:1021C000DA60414B07221A613F4B00221A753F4BE0
:1021D00052221A603D4B00229A603C4B0022DA608A
:1021E0003A4B07221A61394B00221A75384B50229C
:1021F0001A60374B00229A60354B0022DA60344B6C
:1022000005221A61324B00221A75324B56221A608F
:10221000304B00229A602F4B0022DA602D4B0722B0
:102220001A612C4B00221A752B4B57221A602A4B2D
:1022300000229A60284B0022DA60274B07221A619D
:10224000254B00221A75254B58221A60234B002279
:102250009A60224B0022DA60204B05221A611F4B44
:1022600000221A751E4B59221A601D4B00229A60DB
:102270001B4B0022DA601A4B05221A61184B002210
:102280001A75184B60221A60164B00229A60154B83
:102290000022DA60134B05221A61124B00221A75D4
:1022A000114B61221A60104B00229A600E4B0022E3
:1022B000DA600D4B05221A610B4B00221A7500BF24
:1022C000BD4680BC704700BF680000208000002031
:1022D00098000020B0000020C8000020E00000208E
:1022E000F8000020100100202801002080B500AF78
:1022F000FFF7E8FA0020FFF7DBFB0120FFF7D8FB30
:10230000FEF724FB0020FFF7D3FB0120FFF7D0FBF3
:10231000FFF7D8FA0020FEF723FDFEF721FB0A2283
:1023200009210020FEF72EFD04220A210020FEF7DD
:1023300029FD0E210220FFF785FA0020FFF7E2FABF
:10234000FFF736FA0D490020FFF792FBFFF77CFDFF
:10235000FEF714FBFFF72AFFFFF707FFFEF71AFC53
:10236000FFF78EFDFFF7B6FE054B1B78002B02D062
:10237000FFF7BAFDF4E700BFF2E700BF442400080E
:10238000670000200D488546AFF300800C480D49DA
:102390000D4A002302E0D458C4500433C4188C42C0
:1023A000F9D30A4A0A4C002301E013600432A24226
:1023B000FBD300F011F8FFF799FFFEE70050002073
:1023C000000000200000002054240008000000202D
:1023D00040010020FEE7000070B500260C4D0D4CBA
:1023E000641BA410A64209D100F01AF800260A4D79
:1023F0000A4C641BA410A64205D170BD55F8043BDD
:1024000098470136EEE755F8043B98470136F2E766
:102410004C2400084C2400084C24000850240008D8
:10242000F8B500BFF8BC08BC9E467047F8B500BFC1
:08243000F8BC08BC9E46704791
:102438005245515F696E69740000000073756363EB
:042448006573730045
:04244C00550100082E
:04245000310100084E
:040000050800238547
:00000001FF
