:020000040800F2
:1000000000500020590A0008A90A0008A90A00089F
:10001000A90A0008A90A0008A90A000800000000AF
:10002000000000000000000000000000A90A000815
:10003000A90A000800000000A90A00082D0900080C
:10004000A90A0008A90A0008A90A0008A90A0008C4
:10005000A90A0008A90A0008A90A0008A90A0008B4
:10006000A90A0008A90A0008A90A0008A90A0008A4
:10007000A90A0008A90A0008A90A0008A90A000894
:10008000A90A0008A90A0008A90A0008A90A000884
:10009000A90A0008A90A0008A90A0008A90A000874
:1000A000A90A0008A90A0008A90A0008A90A000864
:1000B000A90A0008A90A0008A90A0008A90A000854
:1000C000A90A0008A90A0008A90A0008A90A000844
:1000D000A90A0008A90A0008A90A0008A90A000834
:1000E000A90A0008A90A000800000000A90A0008DF
:1000F000A90A0008A90A0008A90A0008A90A000814
:10010000A90A0008A90A0008A90A0008A90A000803
:10011000A90A0008A90A0008A90A0008A90A0008F3
:10012000A90A0008A90A0008A90A0008A90A0008E3
:1001300010B5054C237833B9044B13B10448AFF321
:1001400000800123237010BD00000020000000008B
:10015000F40A000808B5034B1BB103490348AFF389
:10016000008008BD0000000004000020F40A000820
:1001700080B582B000AF0346FB7100F021FCFB7933
:1001800002331946022000F0DBFB00BF0837BD46F2
:1001900080BD000080B483B000AF0346FB710B4606
:1001A000BB7113467B71FB79022B00F0B380022BED
:1001B00000F30A81002B02D0012B56D004E1BB7959
:1001C000072B17D8834B1B68BA7992000F2101FACD
:1001D00002F2D24311467F4A0B4013607D4B1B68ED
:1001E0007979BA79920001FA02F21146794A0B4301
:1001F00013601CE0BB790F2B19D8BB79083BBB718E
:10020000754B1B68BA7992000F2101FA02F2D243B2
:100210001146714A0B4013606F4B1B687979BA79AC
:10022000920001FA02F211466B4A0B4313607B798C
:10023000082B0BD1694B1B68BA79012101FA02F234
:10024000D2431146654A0B401360B8E07B79082B16
:1002500040F0B580614B1B68BA79012101FA02F2C6
:1002600011465E4A0B431360A9E0BB79072B17D8F0
:100270005B4B1B68BA7992000F2101FA02F2D2435C
:100280001146574A0B401360554B1B687979BA7970
:10029000920001FA02F21146514A0B4313601CE02E
:1002A000BB790F2B19D8BB79083BBB714D4B1B6831
:1002B000BA7992000F2101FA02F2D2431146494A5B
:1002C0000B401360474B1B687979BA79920001FAA9
:1002D00002F21146434A0B4313607B79082B0BD182
:1002E000414B1B68BA79012101FA02F2D24311464F
:1002F0003D4A0B40136064E07B79082B61D13A4B97
:100300001B68BA79012101FA02F21146364A0B4301
:10031000136056E0BB79072B17D8344B1B68BA79AA
:1003200092000F2101FA02F2D24311462F4A0B40EC
:1003300013602E4B1B687979BA79920001FA02F2A8
:1003400011462A4A0B4313601CE0BB790F2B19D8C6
:10035000BB79083BBB71264B1B68BA7992000F2111
:1003600001FA02F2D2431146214A0B401360204B9E
:100370001B687979BA79920001FA02F211461C4A97
:100380000B4313607B79082B0BD11A4B1B68BA798E
:10039000012101FA02F2D2431146164A0B401360C2
:1003A00011E07B79082B0ED1124B1B68BA79012121
:1003B00001FA02F211460F4A0B43136003E000BF3B
:1003C00002E000BF00E000BF00BF0C37BD4680BCAC
:1003D000704700BF00080140040801400C080140BC
:1003E000000C0140040C01400C0C014000100140C5
:1003F000041001400C10014080B483B000AF0346EC
:10040000FB710B46BB7113467B71FB79022B40D00D
:10041000022B60DC002B02D0012B1DD05BE07B792E
:10042000012B0AD12E4B1B68BA79012101FA02F285
:1004300011462B4A0B43136048E07B79002B45D1D2
:10044000274B1B68BA79012101FA02F2D243114607
:10045000234A0B40136039E07B79012B0AD1214BF1
:100460001B68BA79012101FA02F211461D4A0B43B9
:1004700013602DE07B79002B2AD11A4B1B68BA79C7
:10048000012101FA02F2D2431146164A0B401360D1
:100490001EE07B79012B0AD1134B1B68BA7901212D
:1004A00001FA02F21146104A0B43136012E07B7905
:1004B000002B0FD10C4B1B68BA79012101FA02F213
:1004C000D2431146084A0B40136003E000BF02E02C
:1004D00000BF00E000BF00BF0C37BD4680BC7047C6
:1004E0000C0801400C0C01400C10014080B483B09A
:1004F00000AF03460A46FB711346BB71FB79022B22
:1005000000F04C81022B00F3D381002B03D0012B90
:1005100000F0B980CCE1BB79032B00F29F8001A2EF
:1005200052F823F0350500087F050008C9050008CA
:10053000130600084FF080439B694FF0804243F060
:10054000010393614FF080434FF080429B699361B8
:100550004FF080431B6A4FF0804223F00203136286
:100560004FF080434FF080429B6993614FF080438E
:100570001B6A4FF0804243F0010313626EE04FF0BC
:1005800080439B694FF0804243F4807393614FF046
:1005900080434FF080429B6993614FF080431B6A18
:1005A0004FF0804223F0200313624FF080434FF05E
:1005B00080429B6993614FF080431B6A4FF08042F9
:1005C00043F01003136249E04FF08043DB694FF0C2
:1005D000804243F00103D3614FF080434FF08042EB
:1005E000DB69D3614FF080431B6A4FF0804223F4F4
:1005F000007313624FF080434FF08042DB69D36198
:100600004FF080431B6A4FF0804243F480731362C3
:1006100024E04FF08043DB694FF0804243F4807365
:10062000D3614FF080434FF08042DB69D3614FF0DC
:1006300080431B6A4FF0804223F4005313624FF053
:1006400080434FF08042DB69D3614FF080431B6AE7
:100650004FF0804243F48053136200BF4FF0804359
:100660001B684FF0804223F0100313604FF080436B
:1006700004229A624FF080431B684FF0804243F09F
:100680008003136014E1BB79032B77D801A252F8E1
:1006900023F000BFA5060008DB06000811070008CC
:1006A00047070008854B9B69844A43F00103936127
:1006B000824B824A9B699361804B1B6A7F4A23F07D
:1006C000020313627D4B7D4A9B6993617B4B1B6ADE
:1006D0007A4A43F00103136250E0784B9B69774AF2
:1006E00043F480739361754B744A9B699361734BB8
:1006F0001B6A724A23F020031362704B6F4A9B6996
:1007000093616E4B1B6A6D4A43F01003136235E030
:100710006A4BDB69694A43F00103D361674B674A5F
:10072000DB69D361654B1B6A644A23F4007313626F
:10073000624B624ADB69D361604B1B6A5F4A43F4D8
:10074000807313621AE05D4BDB695C4A43F480738B
:10075000D3615A4B594ADB69D361584B1B6A574ADC
:1007600023F400531362554B544ADB69D361534B56
:100770001B6A524A43F48053136200BF4F4B1B68FD
:100780004E4A23F0100313604C4B04229A624B4BE9
:100790001B684A4A43F08003136089E0BB79032B4E
:1007A00076D801A252F823F0B9070008EF07000835
:1007B000250800085B080008414B9B69404A43F04C
:1007C000010393613E4B3E4A9B6993613C4B1B6A1C
:1007D0003B4A23F002031362394B394A9B69936108
:1007E000374B1B6A364A43F00103136250E0344B27
:1007F0009B69334A43F480739361314B304A9B6960
:1008000093612F4B1B6A2E4A23F0200313622C4B5B
:100810002B4A9B6993612A4B1B6A294A43F01003B8
:10082000136235E0264BDB69254A43F00103D361AF
:10083000234B234ADB69D361214B1B6A204A23F4F3
:10084000007313621E4B1E4ADB69D3611C4B1B6A8B
:100850001B4A43F4807313621AE0194BDB69184A90
:1008600043F48073D361164B154ADB69D361144B93
:100870001B6A134A23F400531362114B104ADB69BD
:10088000D3610F4B1B6A0E4A43F48053136200BFBF
:100890000B4B1B680A4A23F010031360084B042219
:1008A0009A62074B1B68064A43F08003136000BF3F
:1008B00000BF0C37BD4680BC704700BF000400403D
:1008C0000008004080B400AF074B1B68064A43F0A5
:1008D00004031360044B1B68034A23F002031360F4
:1008E00000BFBD4680BC704710E000E080B483B01C
:1008F00000AF78600B4A7B6813600B4B1B680A4A99
:1009000043F00103136000BF074B1B681B0C03F08F
:100910000103002BF8D000BF00BF0C37BD4680BCE0
:10092000704700BF14E000E010E000E080B500AFC9
:10093000024B1B68984700BF80BD00BF1C00002011
:1009400080B483B000AF03463960FB713B681F2B56
:100950002AD8FB79022B1CD0022B25DC002B02D0DD
:10096000012B0BD020E0134B1B6801213A6801FAE0
:1009700002F211460F4A0B43136015E00E4B1B6841
:1009800001213A6801FA02F211460B4A0B43136047
:100990000AE00A4B1B6801213A6801FA02F211468B
:1009A000064A0B43136000BF00BF0C37BD4680BC36
:1009B000704700BF141002401C1002401810024083
:1009C00080B400AF0C4B4FF480321A600B4B1B68A5
:1009D0000A4A43F001031360084B084A1B6813607E
:1009E000064B064A1B681360044B044A1B681360DD
:1009F00000BFBD4680BC704700100240041002409A
:100A000080B500AFFFF7DCFF00210120FFF798FF62
:100A100000210020FFF76AFDFFF7D2FF0020FFF75B
:100A2000A7FBFFF74FFF012202210020FFF7B2FBD7
:100A3000012202210020FFF7DFFC0648FFF756FFE6
:100A4000002202210020FFF7D7FC0248FFF74EFFEB
:100A5000EEE700BF404B4C000D488546AFF30080E9
:100A60000C480D490D4A002302E0D458C450043309
:100A7000C4188C42F9D30A4A0A4C002301E01360DF
:100A80000432A242FBD300F011F8FFF7B9FFFEE7F2
:100A9000005000200000002000000020140B00087F
:100AA0000000002020000020FEE7000070B50026B6
:100AB0000C4D0D4C641BA410A64209D100F01AF88D
:100AC00000260A4D0A4C641BA410A64205D170BD35
:100AD00055F8043B98470136EEE755F8043B984734
:100AE0000136F2E70C0B00080C0B00080C0B000899
:100AF000100B0008F8B500BFF8BC08BC9E46704754
:0C0B0000F8B500BFF8BC08BC9E4670476A
:040B0C005501000887
:040B100031010008A7
:0400000508000A598C
:00000001FF
