:020000040800F2
:1000000000500020D9080008290900082909000823
:100010002909000829090008290900080000000032
:100020000000000000000000000000002909000896
:1000300029090008000000002909000845080008F7
:1000400029090008290900082909000829090008C8
:100050002909000829090008ED0400081105000815
:1000600035050008590500087D0500082909000824
:100070002909000829090008290900082909000898
:100080002909000829090008290900082909000888
:10009000290900082909000829090008A105000804
:1000A0002909000829090008290900082909000868
:1000B0002909000829090008290900082909000858
:1000C0002909000829090008290900082909000848
:1000D0002909000829090008290900082909000838
:1000E0002909000829090008000000002909000862
:1000F0002909000829090008290900082909000818
:100100002909000829090008290900082909000807
:1001100029090008290900082909000829090008F7
:1001200029090008290900082909000829090008E7
:1001300010B5054C237833B9044B13B10448AFF321
:1001400000800123237010BD00000020000000008B
:100150007409000808B5034B1BB103490348AFF30A
:10016000008008BD000000000400002074090008A1
:1001700080B582B000AF0346FB7100F0F7FAFB795F
:1001800002331946022000F0B1FA00BF0837BD461D
:1001900080BD000080B483B000AF0346FB710B4606
:1001A000BB7113467B71FB79022B00F0B380022BED
:1001B00000F30A81002B02D0012B56D004E1BB7959
:1001C000072B17D8834B1B68BA7992000F2101FACD
:1001D00002F2D24311467F4A0B4013607D4B1B68ED
:1001E0007979BA79920001FA02F21146794A0B4301
:1001F00013601CE0BB790F2B19D8BB79083BBB718E
:10020000754B1B68BA7992000F2101FA02F2D243B2
:100210001146714A0B4013606F4B1B687979BA79AC
:10022000920001FA02F211466B4A0B4313607B798C
:10023000082B0BD1694B1B68BA79012101FA02F234
:10024000D2431146654A0B401360B8E07B79082B16
:1002500040F0B580614B1B68BA79012101FA02F2C6
:1002600011465E4A0B431360A9E0BB79072B17D8F0
:100270005B4B1B68BA7992000F2101FA02F2D2435C
:100280001146574A0B401360554B1B687979BA7970
:10029000920001FA02F21146514A0B4313601CE02E
:1002A000BB790F2B19D8BB79083BBB714D4B1B6831
:1002B000BA7992000F2101FA02F2D2431146494A5B
:1002C0000B401360474B1B687979BA79920001FAA9
:1002D00002F21146434A0B4313607B79082B0BD182
:1002E000414B1B68BA79012101FA02F2D24311464F
:1002F0003D4A0B40136064E07B79082B61D13A4B97
:100300001B68BA79012101FA02F21146364A0B4301
:10031000136056E0BB79072B17D8344B1B68BA79AA
:1003200092000F2101FA02F2D24311462F4A0B40EC
:1003300013602E4B1B687979BA79920001FA02F2A8
:1003400011462A4A0B4313601CE0BB790F2B19D8C6
:10035000BB79083BBB71264B1B68BA7992000F2111
:1003600001FA02F2D2431146214A0B401360204B9E
:100370001B687979BA79920001FA02F211461C4A97
:100380000B4313607B79082B0BD11A4B1B68BA798E
:10039000012101FA02F2D2431146164A0B401360C2
:1003A00011E07B79082B0ED1124B1B68BA79012121
:1003B00001FA02F211460F4A0B43136003E000BF3B
:1003C00002E000BF00E000BF00BF0C37BD4680BCAC
:1003D000704700BF00080140040801400C080140BC
:1003E000000C0140040C01400C0C014000100140C5
:1003F000041001400C10014080B483B000AF0346EC
:10040000FB710B46BB7113467B71FB79022B40D00D
:10041000022B60DC002B02D0012B1DD05BE07B792E
:10042000012B0AD12E4B1B68BA79012101FA02F285
:1004300011462B4A0B43136048E07B79002B45D1D2
:10044000274B1B68BA79012101FA02F2D243114607
:10045000234A0B40136039E07B79012B0AD1214BF1
:100460001B68BA79012101FA02F211461D4A0B43B9
:1004700013602DE07B79002B2AD11A4B1B68BA79C7
:10048000012101FA02F2D2431146164A0B401360D1
:100490001EE07B79012B0AD1134B1B68BA7901212D
:1004A00001FA02F21146104A0B43136012E07B7905
:1004B000002B0FD10C4B1B68BA79012101FA02F213
:1004C000D2431146084A0B40136003E000BF02E02C
:1004D00000BF00E000BF00BF0C37BD4680BC7047C6
:1004E0000C0801400C0C01400C10014080B500AF1D
:1004F000054B1B689847054B5B69044A43F00103B1
:10050000536100BF80BD00BF1C00002000040140FB
:1005100080B500AF054B1B689847054B5B69044AE3
:1005200043F00203536100BF80BD00BF20000020E4
:100530000004014080B500AF054B1B689847054B90
:100540005B69044A43F00403536100BF80BD00BFF0
:10055000240000200004014080B500AF054B1B685B
:100560009847054B5B69044A43F00803536100BF99
:1005700080BD00BF280000200004014080B500AF0E
:10058000054B1B689847054B5B69044A43F0100311
:10059000536100BF80BD00BF2C000020000401405B
:1005A00080B500AF2A4B5B695B0903F00103012BA7
:1005B00009D1284B1B689847254B5B69244A43F0B7
:1005C0002003536142E0224B5B699B0903F0010366
:1005D000012B09D1204B1B6898471D4B5B691C4AB6
:1005E00043F04003536131E0194B5B69DB0903F0D1
:1005F0000103012B09D1194B1B689847144B5B6908
:10060000134A43F08003536120E0114B5B691B0ADE
:1006100003F00103012B09D1114B1B6898470C4BC8
:100620005B690B4A43F4807353610FE0084B5B69CD
:100630005B0A03F00103012B08D10A4B1B689847A2
:10064000034B5B69024A43F40073536100BF80BDF2
:100650000004014030000020340000203800002059
:100660003C0000204000002080B400AF074B1B6816
:10067000064A43F004031360044B1B68034A23F04B
:100680000203136000BFBD4680BC704710E000E06D
:1006900080B483B000AF78600B4A7B6813600B4B6B
:1006A0001B680A4A43F00103136000BF074B1B6835
:1006B0001B0C03F00103002BF8D000BF00BF0C3768
:1006C000BD4680BC704700BF14E000E010E000E0D1
:1006D00080B582B000AF78607B68DB007B607868B3
:1006E000FFF7D6FF00BF0837BD4680BD80B483B09A
:1006F00000AF03463960FB713B681F2B2AD8FB799A
:10070000022B1CD0022B25DC002B02D0012B0BD09E
:1007100020E0134B1B6801213A6801FA02F21146EE
:100720000F4A0B43136015E00E4B1B6801213A681A
:1007300001FA02F211460B4A0B4313600AE00A4B1E
:100740001B6801213A6801FA02F21146064A0B437E
:10075000136000BF00BF0C37BD4680BC704700BFB0
:10076000141002401C1002401810024080B400AF68
:100770000C4B4FF480321A600B4B1B680A4A43F053
:1007800001031360084B084A1B681360064B064AB6
:100790001B681360044B044A1B68136000BFBD460E
:1007A00080BC7047001002400410024080B500AFCA
:1007B000FFF7DCFF0020FFF7DBFCFFF755FF01220E
:1007C00004210020FFF7E6FC012205210020FFF7AD
:1007D000E1FC012206210020FFF7DCFC00220621BB
:1007E0000020FFF709FE00BF80BD80B584B000AFD8
:1007F00078600B46FB70FB781A4605210020FFF756
:10080000FBFD0023FB6014E0012204210020FFF720
:10081000F3FD4FF47A70FFF75BFF00220421002004
:10082000FFF7EAFD4FF47A70FFF752FFFB680133E0
:10083000FB60FA687B689A42E6D900BF00BF1037B8
:10084000BD4680BD80B582B000AF0A4B1B78002B3F
:1008500001D100F015F8084B1B689847074B1B683F
:100860001B0CDBB203F00103FB7100BF0837BD4670
:1008700080BD00BF480000204400002010E000E0E0
:1008800080B400AF0A4B1B68094A23F002031360CF
:10089000074B1B68064A23F001031360044B002238
:1008A0005A60034B00229A6000BFBD4680BC70476F
:1008B00010E000E080B500AFFFF778FF0121C8200D
:1008C000FFF793FF0121C820FFF78FFF0021C82009
:1008D000FFF78BFFF6E700000D488546AFF3008079
:1008E0000C480D490D4A002302E0D458C45004338B
:1008F000C4188C42F9D30A4A0A4C002301E0136061
:100900000432A242FBD300F011F8FFF7D3FFFEE759
:100910000050002000000020000000209409000882
:10092000000000204C000020FEE7000070B500260B
:100930000C4D0D4C641BA410A64209D100F01AF80E
:1009400000260A4D0A4C641BA410A64205D170BDB6
:1009500055F8043B98470136EEE755F8043B9847B5
:100960000136F2E78C0900088C0900088C090008A0
:1009700090090008F8B500BFF8BC08BC9E46704757
:0C098000F8B500BFF8BC08BC9E467047EC
:04098C005501000809
:040990003101000829
:04000005080008D90E
:00000001FF
